{
	"contracts/BlockchainDevCourse/05.Smart_Wallet/LowLevelCallsOnReceive.sol": {
		"ContractOne": {
			"abi": [
				{
					"inputs": [
						{
							"internalType": "address",
							"name": "",
							"type": "address"
						}
					],
					"name": "addressBalances",
					"outputs": [
						{
							"internalType": "uint256",
							"name": "",
							"type": "uint256"
						}
					],
					"stateMutability": "view",
					"type": "function"
				},
				{
					"inputs": [],
					"name": "getBalance",
					"outputs": [
						{
							"internalType": "uint256",
							"name": "",
							"type": "uint256"
						}
					],
					"stateMutability": "view",
					"type": "function"
				},
				{
					"stateMutability": "payable",
					"type": "receive"
				}
			],
			"devdoc": {
				"kind": "dev",
				"methods": {},
				"version": 1
			},
			"evm": {
				"assembly": "    /* \"contracts/BlockchainDevCourse/05.Smart_Wallet/LowLevelCallsOnReceive.sol\":61:334  contract ContractOne {... */\n  mstore(0x40, 0x80)\n  callvalue\n  dup1\n  iszero\n  tag_1\n  jumpi\n  0x00\n  dup1\n  revert\ntag_1:\n  pop\n  dataSize(sub_0)\n  dup1\n  dataOffset(sub_0)\n  0x00\n  codecopy\n  0x00\n  return\nstop\n\nsub_0: assembly {\n        /* \"contracts/BlockchainDevCourse/05.Smart_Wallet/LowLevelCallsOnReceive.sol\":61:334  contract ContractOne {... */\n      mstore(0x40, 0x80)\n      jumpi(tag_1, lt(calldatasize, 0x04))\n      shr(0xe0, calldataload(0x00))\n      dup1\n      0x12065fe0\n      eq\n      tag_3\n      jumpi\n      dup1\n      0x79fc3682\n      eq\n      tag_4\n      jumpi\n      jump(tag_2)\n    tag_1:\n      jumpi(tag_2, calldatasize)\n        /* \"contracts/BlockchainDevCourse/05.Smart_Wallet/LowLevelCallsOnReceive.sol\":316:325  msg.value */\n      callvalue\n        /* \"contracts/BlockchainDevCourse/05.Smart_Wallet/LowLevelCallsOnReceive.sol\":285:300  addressBalances */\n      0x00\n        /* \"contracts/BlockchainDevCourse/05.Smart_Wallet/LowLevelCallsOnReceive.sol\":285:312  addressBalances[msg.sender] */\n      dup1\n        /* \"contracts/BlockchainDevCourse/05.Smart_Wallet/LowLevelCallsOnReceive.sol\":301:311  msg.sender */\n      caller\n        /* \"contracts/BlockchainDevCourse/05.Smart_Wallet/LowLevelCallsOnReceive.sol\":285:312  addressBalances[msg.sender] */\n      0xffffffffffffffffffffffffffffffffffffffff\n      and\n      0xffffffffffffffffffffffffffffffffffffffff\n      and\n      dup2\n      mstore\n      0x20\n      add\n      swap1\n      dup2\n      mstore\n      0x20\n      add\n      0x00\n      keccak256\n      0x00\n        /* \"contracts/BlockchainDevCourse/05.Smart_Wallet/LowLevelCallsOnReceive.sol\":285:325  addressBalances[msg.sender] += msg.value */\n      dup3\n      dup3\n      sload\n      tag_7\n      swap2\n      swap1\n      tag_8\n      jump\t// in\n    tag_7:\n      swap3\n      pop\n      pop\n      dup2\n      swap1\n      sstore\n      stop\n        /* \"contracts/BlockchainDevCourse/05.Smart_Wallet/LowLevelCallsOnReceive.sol\":61:334  contract ContractOne {... */\n    tag_2:\n      0x00\n      dup1\n      revert\n        /* \"contracts/BlockchainDevCourse/05.Smart_Wallet/LowLevelCallsOnReceive.sol\":145:242  function getBalance() public view returns (uint256) {... */\n    tag_3:\n      callvalue\n      dup1\n      iszero\n      tag_9\n      jumpi\n      0x00\n      dup1\n      revert\n    tag_9:\n      pop\n      tag_10\n      tag_11\n      jump\t// in\n    tag_10:\n      mload(0x40)\n      tag_12\n      swap2\n      swap1\n      tag_13\n      jump\t// in\n    tag_12:\n      mload(0x40)\n      dup1\n      swap2\n      sub\n      swap1\n      return\n        /* \"contracts/BlockchainDevCourse/05.Smart_Wallet/LowLevelCallsOnReceive.sol\":88:138  mapping(address => uint256) public addressBalances */\n    tag_4:\n      callvalue\n      dup1\n      iszero\n      tag_14\n      jumpi\n      0x00\n      dup1\n      revert\n    tag_14:\n      pop\n      tag_15\n      0x04\n      dup1\n      calldatasize\n      sub\n      dup2\n      add\n      swap1\n      tag_16\n      swap2\n      swap1\n      tag_17\n      jump\t// in\n    tag_16:\n      tag_18\n      jump\t// in\n    tag_15:\n      mload(0x40)\n      tag_19\n      swap2\n      swap1\n      tag_13\n      jump\t// in\n    tag_19:\n      mload(0x40)\n      dup1\n      swap2\n      sub\n      swap1\n      return\n        /* \"contracts/BlockchainDevCourse/05.Smart_Wallet/LowLevelCallsOnReceive.sol\":145:242  function getBalance() public view returns (uint256) {... */\n    tag_11:\n        /* \"contracts/BlockchainDevCourse/05.Smart_Wallet/LowLevelCallsOnReceive.sol\":188:195  uint256 */\n      0x00\n        /* \"contracts/BlockchainDevCourse/05.Smart_Wallet/LowLevelCallsOnReceive.sol\":214:235  address(this).balance */\n      selfbalance\n        /* \"contracts/BlockchainDevCourse/05.Smart_Wallet/LowLevelCallsOnReceive.sol\":207:235  return address(this).balance */\n      swap1\n      pop\n        /* \"contracts/BlockchainDevCourse/05.Smart_Wallet/LowLevelCallsOnReceive.sol\":145:242  function getBalance() public view returns (uint256) {... */\n      swap1\n      jump\t// out\n        /* \"contracts/BlockchainDevCourse/05.Smart_Wallet/LowLevelCallsOnReceive.sol\":88:138  mapping(address => uint256) public addressBalances */\n    tag_18:\n      mstore(0x20, 0x00)\n      dup1\n      0x00\n      mstore\n      keccak256(0x00, 0x40)\n      0x00\n      swap2\n      pop\n      swap1\n      pop\n      sload\n      dup2\n      jump\t// out\n        /* \"#utility.yul\":7:84   */\n    tag_21:\n        /* \"#utility.yul\":44:51   */\n      0x00\n        /* \"#utility.yul\":73:78   */\n      dup2\n        /* \"#utility.yul\":62:78   */\n      swap1\n      pop\n        /* \"#utility.yul\":7:84   */\n      swap2\n      swap1\n      pop\n      jump\t// out\n        /* \"#utility.yul\":90:270   */\n    tag_22:\n        /* \"#utility.yul\":138:215   */\n      0x4e487b7100000000000000000000000000000000000000000000000000000000\n        /* \"#utility.yul\":135:136   */\n      0x00\n        /* \"#utility.yul\":128:216   */\n      mstore\n        /* \"#utility.yul\":235:239   */\n      0x11\n        /* \"#utility.yul\":232:233   */\n      0x04\n        /* \"#utility.yul\":225:240   */\n      mstore\n        /* \"#utility.yul\":259:263   */\n      0x24\n        /* \"#utility.yul\":256:257   */\n      0x00\n        /* \"#utility.yul\":249:264   */\n      revert\n        /* \"#utility.yul\":276:581   */\n    tag_8:\n        /* \"#utility.yul\":316:319   */\n      0x00\n        /* \"#utility.yul\":335:355   */\n      tag_35\n        /* \"#utility.yul\":353:354   */\n      dup3\n        /* \"#utility.yul\":335:355   */\n      tag_21\n      jump\t// in\n    tag_35:\n        /* \"#utility.yul\":330:355   */\n      swap2\n      pop\n        /* \"#utility.yul\":369:389   */\n      tag_36\n        /* \"#utility.yul\":387:388   */\n      dup4\n        /* \"#utility.yul\":369:389   */\n      tag_21\n      jump\t// in\n    tag_36:\n        /* \"#utility.yul\":364:389   */\n      swap3\n      pop\n        /* \"#utility.yul\":523:524   */\n      dup3\n        /* \"#utility.yul\":455:521   */\n      0xffffffffffffffffffffffffffffffffffffffffffffffffffffffffffffffff\n        /* \"#utility.yul\":451:525   */\n      sub\n        /* \"#utility.yul\":448:449   */\n      dup3\n        /* \"#utility.yul\":445:526   */\n      gt\n        /* \"#utility.yul\":442:549   */\n      iszero\n      tag_37\n      jumpi\n        /* \"#utility.yul\":529:547   */\n      tag_38\n      tag_22\n      jump\t// in\n    tag_38:\n        /* \"#utility.yul\":442:549   */\n    tag_37:\n        /* \"#utility.yul\":573:574   */\n      dup3\n        /* \"#utility.yul\":570:571   */\n      dup3\n        /* \"#utility.yul\":566:575   */\n      add\n        /* \"#utility.yul\":559:575   */\n      swap1\n      pop\n        /* \"#utility.yul\":276:581   */\n      swap3\n      swap2\n      pop\n      pop\n      jump\t// out\n        /* \"#utility.yul\":587:705   */\n    tag_23:\n        /* \"#utility.yul\":674:698   */\n      tag_40\n        /* \"#utility.yul\":692:697   */\n      dup2\n        /* \"#utility.yul\":674:698   */\n      tag_21\n      jump\t// in\n    tag_40:\n        /* \"#utility.yul\":669:672   */\n      dup3\n        /* \"#utility.yul\":662:699   */\n      mstore\n        /* \"#utility.yul\":587:705   */\n      pop\n      pop\n      jump\t// out\n        /* \"#utility.yul\":711:933   */\n    tag_13:\n        /* \"#utility.yul\":804:808   */\n      0x00\n        /* \"#utility.yul\":842:844   */\n      0x20\n        /* \"#utility.yul\":831:840   */\n      dup3\n        /* \"#utility.yul\":827:845   */\n      add\n        /* \"#utility.yul\":819:845   */\n      swap1\n      pop\n        /* \"#utility.yul\":855:926   */\n      tag_42\n        /* \"#utility.yul\":923:924   */\n      0x00\n        /* \"#utility.yul\":912:921   */\n      dup4\n        /* \"#utility.yul\":908:925   */\n      add\n        /* \"#utility.yul\":899:905   */\n      dup5\n        /* \"#utility.yul\":855:926   */\n      tag_23\n      jump\t// in\n    tag_42:\n        /* \"#utility.yul\":711:933   */\n      swap3\n      swap2\n      pop\n      pop\n      jump\t// out\n        /* \"#utility.yul\":1020:1137   */\n    tag_25:\n        /* \"#utility.yul\":1129:1130   */\n      0x00\n        /* \"#utility.yul\":1126:1127   */\n      dup1\n        /* \"#utility.yul\":1119:1131   */\n      revert\n        /* \"#utility.yul\":1266:1392   */\n    tag_27:\n        /* \"#utility.yul\":1303:1310   */\n      0x00\n        /* \"#utility.yul\":1343:1385   */\n      0xffffffffffffffffffffffffffffffffffffffff\n        /* \"#utility.yul\":1336:1341   */\n      dup3\n        /* \"#utility.yul\":1332:1386   */\n      and\n        /* \"#utility.yul\":1321:1386   */\n      swap1\n      pop\n        /* \"#utility.yul\":1266:1392   */\n      swap2\n      swap1\n      pop\n      jump\t// out\n        /* \"#utility.yul\":1398:1494   */\n    tag_28:\n        /* \"#utility.yul\":1435:1442   */\n      0x00\n        /* \"#utility.yul\":1464:1488   */\n      tag_48\n        /* \"#utility.yul\":1482:1487   */\n      dup3\n        /* \"#utility.yul\":1464:1488   */\n      tag_27\n      jump\t// in\n    tag_48:\n        /* \"#utility.yul\":1453:1488   */\n      swap1\n      pop\n        /* \"#utility.yul\":1398:1494   */\n      swap2\n      swap1\n      pop\n      jump\t// out\n        /* \"#utility.yul\":1500:1622   */\n    tag_29:\n        /* \"#utility.yul\":1573:1597   */\n      tag_50\n        /* \"#utility.yul\":1591:1596   */\n      dup2\n        /* \"#utility.yul\":1573:1597   */\n      tag_28\n      jump\t// in\n    tag_50:\n        /* \"#utility.yul\":1566:1571   */\n      dup2\n        /* \"#utility.yul\":1563:1598   */\n      eq\n        /* \"#utility.yul\":1553:1616   */\n      tag_51\n      jumpi\n        /* \"#utility.yul\":1612:1613   */\n      0x00\n        /* \"#utility.yul\":1609:1610   */\n      dup1\n        /* \"#utility.yul\":1602:1614   */\n      revert\n        /* \"#utility.yul\":1553:1616   */\n    tag_51:\n        /* \"#utility.yul\":1500:1622   */\n      pop\n      jump\t// out\n        /* \"#utility.yul\":1628:1767   */\n    tag_30:\n        /* \"#utility.yul\":1674:1679   */\n      0x00\n        /* \"#utility.yul\":1712:1718   */\n      dup2\n        /* \"#utility.yul\":1699:1719   */\n      calldataload\n        /* \"#utility.yul\":1690:1719   */\n      swap1\n      pop\n        /* \"#utility.yul\":1728:1761   */\n      tag_53\n        /* \"#utility.yul\":1755:1760   */\n      dup2\n        /* \"#utility.yul\":1728:1761   */\n      tag_29\n      jump\t// in\n    tag_53:\n        /* \"#utility.yul\":1628:1767   */\n      swap3\n      swap2\n      pop\n      pop\n      jump\t// out\n        /* \"#utility.yul\":1773:2102   */\n    tag_17:\n        /* \"#utility.yul\":1832:1838   */\n      0x00\n        /* \"#utility.yul\":1881:1883   */\n      0x20\n        /* \"#utility.yul\":1869:1878   */\n      dup3\n        /* \"#utility.yul\":1860:1867   */\n      dup5\n        /* \"#utility.yul\":1856:1879   */\n      sub\n        /* \"#utility.yul\":1852:1884   */\n      slt\n        /* \"#utility.yul\":1849:1968   */\n      iszero\n      tag_55\n      jumpi\n        /* \"#utility.yul\":1887:1966   */\n      tag_56\n      tag_25\n      jump\t// in\n    tag_56:\n        /* \"#utility.yul\":1849:1968   */\n    tag_55:\n        /* \"#utility.yul\":2007:2008   */\n      0x00\n        /* \"#utility.yul\":2032:2085   */\n      tag_57\n        /* \"#utility.yul\":2077:2084   */\n      dup5\n        /* \"#utility.yul\":2068:2074   */\n      dup3\n        /* \"#utility.yul\":2057:2066   */\n      dup6\n        /* \"#utility.yul\":2053:2075   */\n      add\n        /* \"#utility.yul\":2032:2085   */\n      tag_30\n      jump\t// in\n    tag_57:\n        /* \"#utility.yul\":2022:2085   */\n      swap2\n      pop\n        /* \"#utility.yul\":1978:2095   */\n      pop\n        /* \"#utility.yul\":1773:2102   */\n      swap3\n      swap2\n      pop\n      pop\n      jump\t// out\n\n    auxdata: 0xa2646970667358221220fe52be188c98815442a7915d1a950aa459275cb3ac71503bbe8f425413ecd61364736f6c634300080f0033\n}\n",
				"bytecode": {
					"linkReferences": {},
					"object": "608060405234801561001057600080fd5b50610294806100206000396000f3fe60806040526004361061002d5760003560e01c806312065fe01461008d57806379fc3682146100b857610088565b3661008857346000803373ffffffffffffffffffffffffffffffffffffffff1673ffffffffffffffffffffffffffffffffffffffff1681526020019081526020016000206000828254610080919061014e565b925050819055005b600080fd5b34801561009957600080fd5b506100a26100f5565b6040516100af91906101b3565b60405180910390f35b3480156100c457600080fd5b506100df60048036038101906100da9190610231565b6100fd565b6040516100ec91906101b3565b60405180910390f35b600047905090565b60006020528060005260406000206000915090505481565b6000819050919050565b7f4e487b7100000000000000000000000000000000000000000000000000000000600052601160045260246000fd5b600061015982610115565b915061016483610115565b9250827fffffffffffffffffffffffffffffffffffffffffffffffffffffffffffffffff038211156101995761019861011f565b5b828201905092915050565b6101ad81610115565b82525050565b60006020820190506101c860008301846101a4565b92915050565b600080fd5b600073ffffffffffffffffffffffffffffffffffffffff82169050919050565b60006101fe826101d3565b9050919050565b61020e816101f3565b811461021957600080fd5b50565b60008135905061022b81610205565b92915050565b600060208284031215610247576102466101ce565b5b60006102558482850161021c565b9150509291505056fea2646970667358221220fe52be188c98815442a7915d1a950aa459275cb3ac71503bbe8f425413ecd61364736f6c634300080f0033",
					"opcodes": "PUSH1 0x80 PUSH1 0x40 MSTORE CALLVALUE DUP1 ISZERO PUSH2 0x10 JUMPI PUSH1 0x0 DUP1 REVERT JUMPDEST POP PUSH2 0x294 DUP1 PUSH2 0x20 PUSH1 0x0 CODECOPY PUSH1 0x0 RETURN INVALID PUSH1 0x80 PUSH1 0x40 MSTORE PUSH1 0x4 CALLDATASIZE LT PUSH2 0x2D JUMPI PUSH1 0x0 CALLDATALOAD PUSH1 0xE0 SHR DUP1 PUSH4 0x12065FE0 EQ PUSH2 0x8D JUMPI DUP1 PUSH4 0x79FC3682 EQ PUSH2 0xB8 JUMPI PUSH2 0x88 JUMP JUMPDEST CALLDATASIZE PUSH2 0x88 JUMPI CALLVALUE PUSH1 0x0 DUP1 CALLER PUSH20 0xFFFFFFFFFFFFFFFFFFFFFFFFFFFFFFFFFFFFFFFF AND PUSH20 0xFFFFFFFFFFFFFFFFFFFFFFFFFFFFFFFFFFFFFFFF AND DUP2 MSTORE PUSH1 0x20 ADD SWAP1 DUP2 MSTORE PUSH1 0x20 ADD PUSH1 0x0 KECCAK256 PUSH1 0x0 DUP3 DUP3 SLOAD PUSH2 0x80 SWAP2 SWAP1 PUSH2 0x14E JUMP JUMPDEST SWAP3 POP POP DUP2 SWAP1 SSTORE STOP JUMPDEST PUSH1 0x0 DUP1 REVERT JUMPDEST CALLVALUE DUP1 ISZERO PUSH2 0x99 JUMPI PUSH1 0x0 DUP1 REVERT JUMPDEST POP PUSH2 0xA2 PUSH2 0xF5 JUMP JUMPDEST PUSH1 0x40 MLOAD PUSH2 0xAF SWAP2 SWAP1 PUSH2 0x1B3 JUMP JUMPDEST PUSH1 0x40 MLOAD DUP1 SWAP2 SUB SWAP1 RETURN JUMPDEST CALLVALUE DUP1 ISZERO PUSH2 0xC4 JUMPI PUSH1 0x0 DUP1 REVERT JUMPDEST POP PUSH2 0xDF PUSH1 0x4 DUP1 CALLDATASIZE SUB DUP2 ADD SWAP1 PUSH2 0xDA SWAP2 SWAP1 PUSH2 0x231 JUMP JUMPDEST PUSH2 0xFD JUMP JUMPDEST PUSH1 0x40 MLOAD PUSH2 0xEC SWAP2 SWAP1 PUSH2 0x1B3 JUMP JUMPDEST PUSH1 0x40 MLOAD DUP1 SWAP2 SUB SWAP1 RETURN JUMPDEST PUSH1 0x0 SELFBALANCE SWAP1 POP SWAP1 JUMP JUMPDEST PUSH1 0x0 PUSH1 0x20 MSTORE DUP1 PUSH1 0x0 MSTORE PUSH1 0x40 PUSH1 0x0 KECCAK256 PUSH1 0x0 SWAP2 POP SWAP1 POP SLOAD DUP2 JUMP JUMPDEST PUSH1 0x0 DUP2 SWAP1 POP SWAP2 SWAP1 POP JUMP JUMPDEST PUSH32 0x4E487B7100000000000000000000000000000000000000000000000000000000 PUSH1 0x0 MSTORE PUSH1 0x11 PUSH1 0x4 MSTORE PUSH1 0x24 PUSH1 0x0 REVERT JUMPDEST PUSH1 0x0 PUSH2 0x159 DUP3 PUSH2 0x115 JUMP JUMPDEST SWAP2 POP PUSH2 0x164 DUP4 PUSH2 0x115 JUMP JUMPDEST SWAP3 POP DUP3 PUSH32 0xFFFFFFFFFFFFFFFFFFFFFFFFFFFFFFFFFFFFFFFFFFFFFFFFFFFFFFFFFFFFFFFF SUB DUP3 GT ISZERO PUSH2 0x199 JUMPI PUSH2 0x198 PUSH2 0x11F JUMP JUMPDEST JUMPDEST DUP3 DUP3 ADD SWAP1 POP SWAP3 SWAP2 POP POP JUMP JUMPDEST PUSH2 0x1AD DUP2 PUSH2 0x115 JUMP JUMPDEST DUP3 MSTORE POP POP JUMP JUMPDEST PUSH1 0x0 PUSH1 0x20 DUP3 ADD SWAP1 POP PUSH2 0x1C8 PUSH1 0x0 DUP4 ADD DUP5 PUSH2 0x1A4 JUMP JUMPDEST SWAP3 SWAP2 POP POP JUMP JUMPDEST PUSH1 0x0 DUP1 REVERT JUMPDEST PUSH1 0x0 PUSH20 0xFFFFFFFFFFFFFFFFFFFFFFFFFFFFFFFFFFFFFFFF DUP3 AND SWAP1 POP SWAP2 SWAP1 POP JUMP JUMPDEST PUSH1 0x0 PUSH2 0x1FE DUP3 PUSH2 0x1D3 JUMP JUMPDEST SWAP1 POP SWAP2 SWAP1 POP JUMP JUMPDEST PUSH2 0x20E DUP2 PUSH2 0x1F3 JUMP JUMPDEST DUP2 EQ PUSH2 0x219 JUMPI PUSH1 0x0 DUP1 REVERT JUMPDEST POP JUMP JUMPDEST PUSH1 0x0 DUP2 CALLDATALOAD SWAP1 POP PUSH2 0x22B DUP2 PUSH2 0x205 JUMP JUMPDEST SWAP3 SWAP2 POP POP JUMP JUMPDEST PUSH1 0x0 PUSH1 0x20 DUP3 DUP5 SUB SLT ISZERO PUSH2 0x247 JUMPI PUSH2 0x246 PUSH2 0x1CE JUMP JUMPDEST JUMPDEST PUSH1 0x0 PUSH2 0x255 DUP5 DUP3 DUP6 ADD PUSH2 0x21C JUMP JUMPDEST SWAP2 POP POP SWAP3 SWAP2 POP POP JUMP INVALID LOG2 PUSH5 0x6970667358 0x22 SLT KECCAK256 INVALID MSTORE 0xBE XOR DUP13 SWAP9 DUP2 SLOAD TIMESTAMP 0xA7 SWAP2 0x5D BYTE SWAP6 EXP LOG4 MSIZE 0x27 0x5C 0xB3 0xAC PUSH18 0x503BBE8F425413ECD61364736F6C63430008 0xF STOP CALLER "
				},
				"gasEstimates": {
					"creation": {
						"codeDepositCost": "132000",
						"executionCost": "177",
						"totalCost": "132177"
					},
					"external": {
						"addressBalances(address)": "2814",
						"getBalance()": "317"
					}
				},
				"methodIdentifiers": {
					"addressBalances(address)": "79fc3682",
					"getBalance()": "12065fe0"
				}
			},
			"storageLayout": {
				"storage": [
					{
						"astId": 5,
						"contract": "contracts/BlockchainDevCourse/05.Smart_Wallet/LowLevelCallsOnReceive.sol:ContractOne",
						"label": "addressBalances",
						"offset": 0,
						"slot": "0",
						"type": "t_mapping(t_address,t_uint256)"
					}
				],
				"types": {
					"t_address": {
						"encoding": "inplace",
						"label": "address",
						"numberOfBytes": "20"
					},
					"t_mapping(t_address,t_uint256)": {
						"encoding": "mapping",
						"key": "t_address",
						"label": "mapping(address => uint256)",
						"numberOfBytes": "32",
						"value": "t_uint256"
					},
					"t_uint256": {
						"encoding": "inplace",
						"label": "uint256",
						"numberOfBytes": "32"
					}
				}
			},
			"userdoc": {
				"kind": "user",
				"methods": {},
				"version": 1
			}
		}
	}
}