{
	"contracts/BlockchainDevCourse/05.Smart_Wallet/MappingsStructTransactionExample.sol": {
		"MappingsStructExample": {
			"abi": [
				{
					"inputs": [
						{
							"internalType": "address",
							"name": "",
							"type": "address"
						}
					],
					"name": "balanceReceived",
					"outputs": [
						{
							"internalType": "uint256",
							"name": "totalBalance",
							"type": "uint256"
						},
						{
							"internalType": "uint256",
							"name": "numDeposits",
							"type": "uint256"
						},
						{
							"internalType": "uint256",
							"name": "numWithdrawals",
							"type": "uint256"
						}
					],
					"stateMutability": "view",
					"type": "function"
				},
				{
					"inputs": [],
					"name": "depositMoney",
					"outputs": [],
					"stateMutability": "payable",
					"type": "function"
				},
				{
					"inputs": [
						{
							"internalType": "address",
							"name": "_addr",
							"type": "address"
						}
					],
					"name": "getBalance",
					"outputs": [
						{
							"internalType": "uint256",
							"name": "",
							"type": "uint256"
						}
					],
					"stateMutability": "view",
					"type": "function"
				},
				{
					"inputs": [
						{
							"internalType": "address payable",
							"name": "_to",
							"type": "address"
						},
						{
							"internalType": "uint256",
							"name": "_amount",
							"type": "uint256"
						}
					],
					"name": "withdrawMoney",
					"outputs": [],
					"stateMutability": "payable",
					"type": "function"
				}
			],
			"devdoc": {
				"kind": "dev",
				"methods": {},
				"version": 1
			},
			"evm": {
				"assembly": "    /* \"contracts/BlockchainDevCourse/05.Smart_Wallet/MappingsStructTransactionExample.sol\":61:1480  contract MappingsStructExample {... */\n  mstore(0x40, 0x80)\n  callvalue\n  dup1\n  iszero\n  tag_1\n  jumpi\n  0x00\n  dup1\n  revert\ntag_1:\n  pop\n  dataSize(sub_0)\n  dup1\n  dataOffset(sub_0)\n  0x00\n  codecopy\n  0x00\n  return\nstop\n\nsub_0: assembly {\n        /* \"contracts/BlockchainDevCourse/05.Smart_Wallet/MappingsStructTransactionExample.sol\":61:1480  contract MappingsStructExample {... */\n      mstore(0x40, 0x80)\n      jumpi(tag_1, lt(calldatasize, 0x04))\n      shr(0xe0, calldataload(0x00))\n      dup1\n      0x16c05aa2\n      eq\n      tag_2\n      jumpi\n      dup1\n      0xd18a42e1\n      eq\n      tag_3\n      jumpi\n      dup1\n      0xf274c897\n      eq\n      tag_4\n      jumpi\n      dup1\n      0xf8b2cb4f\n      eq\n      tag_5\n      jumpi\n    tag_1:\n      0x00\n      dup1\n      revert\n        /* \"contracts/BlockchainDevCourse/05.Smart_Wallet/MappingsStructTransactionExample.sol\":589:931  function depositMoney() public payable {... */\n    tag_2:\n      tag_6\n      tag_7\n      jump\t// in\n    tag_6:\n      stop\n        /* \"contracts/BlockchainDevCourse/05.Smart_Wallet/MappingsStructTransactionExample.sol\":398:448  mapping(address => Balance) public balanceReceived */\n    tag_3:\n      callvalue\n      dup1\n      iszero\n      tag_8\n      jumpi\n      0x00\n      dup1\n      revert\n    tag_8:\n      pop\n      tag_9\n      0x04\n      dup1\n      calldatasize\n      sub\n      dup2\n      add\n      swap1\n      tag_10\n      swap2\n      swap1\n      tag_11\n      jump\t// in\n    tag_10:\n      tag_12\n      jump\t// in\n    tag_9:\n      mload(0x40)\n      tag_13\n      swap4\n      swap3\n      swap2\n      swap1\n      tag_14\n      jump\t// in\n    tag_13:\n      mload(0x40)\n      dup1\n      swap2\n      sub\n      swap1\n      return\n        /* \"contracts/BlockchainDevCourse/05.Smart_Wallet/MappingsStructTransactionExample.sol\":939:1477  function withdrawMoney(address payable _to, uint _amount) public payable  {... */\n    tag_4:\n      tag_15\n      0x04\n      dup1\n      calldatasize\n      sub\n      dup2\n      add\n      swap1\n      tag_16\n      swap2\n      swap1\n      tag_17\n      jump\t// in\n    tag_16:\n      tag_18\n      jump\t// in\n    tag_15:\n      stop\n        /* \"contracts/BlockchainDevCourse/05.Smart_Wallet/MappingsStructTransactionExample.sol\":459:581  function getBalance(address _addr) public view returns(uint) {... */\n    tag_5:\n      callvalue\n      dup1\n      iszero\n      tag_19\n      jumpi\n      0x00\n      dup1\n      revert\n    tag_19:\n      pop\n      tag_20\n      0x04\n      dup1\n      calldatasize\n      sub\n      dup2\n      add\n      swap1\n      tag_21\n      swap2\n      swap1\n      tag_11\n      jump\t// in\n    tag_21:\n      tag_22\n      jump\t// in\n    tag_20:\n      mload(0x40)\n      tag_23\n      swap2\n      swap1\n      tag_24\n      jump\t// in\n    tag_23:\n      mload(0x40)\n      dup1\n      swap2\n      sub\n      swap1\n      return\n        /* \"contracts/BlockchainDevCourse/05.Smart_Wallet/MappingsStructTransactionExample.sol\":589:931  function depositMoney() public payable {... */\n    tag_7:\n        /* \"contracts/BlockchainDevCourse/05.Smart_Wallet/MappingsStructTransactionExample.sol\":683:692  msg.value */\n      callvalue\n        /* \"contracts/BlockchainDevCourse/05.Smart_Wallet/MappingsStructTransactionExample.sol\":639:654  balanceReceived */\n      0x00\n        /* \"contracts/BlockchainDevCourse/05.Smart_Wallet/MappingsStructTransactionExample.sol\":639:666  balanceReceived[msg.sender] */\n      dup1\n        /* \"contracts/BlockchainDevCourse/05.Smart_Wallet/MappingsStructTransactionExample.sol\":655:665  msg.sender */\n      caller\n        /* \"contracts/BlockchainDevCourse/05.Smart_Wallet/MappingsStructTransactionExample.sol\":639:666  balanceReceived[msg.sender] */\n      0xffffffffffffffffffffffffffffffffffffffff\n      and\n      0xffffffffffffffffffffffffffffffffffffffff\n      and\n      dup2\n      mstore\n      0x20\n      add\n      swap1\n      dup2\n      mstore\n      0x20\n      add\n      0x00\n      keccak256\n        /* \"contracts/BlockchainDevCourse/05.Smart_Wallet/MappingsStructTransactionExample.sol\":639:679  balanceReceived[msg.sender].totalBalance */\n      0x00\n      add\n      0x00\n        /* \"contracts/BlockchainDevCourse/05.Smart_Wallet/MappingsStructTransactionExample.sol\":639:692  balanceReceived[msg.sender].totalBalance += msg.value */\n      dup3\n      dup3\n      sload\n      tag_26\n      swap2\n      swap1\n      tag_27\n      jump\t// in\n    tag_26:\n      swap3\n      pop\n      pop\n      dup2\n      swap1\n      sstore\n      pop\n        /* \"contracts/BlockchainDevCourse/05.Smart_Wallet/MappingsStructTransactionExample.sol\":705:731  Transaction memory deposit */\n      0x00\n        /* \"contracts/BlockchainDevCourse/05.Smart_Wallet/MappingsStructTransactionExample.sol\":734:773  Transaction(msg.value, block.timestamp) */\n      mload(0x40)\n      dup1\n      0x40\n      add\n      0x40\n      mstore\n      dup1\n        /* \"contracts/BlockchainDevCourse/05.Smart_Wallet/MappingsStructTransactionExample.sol\":746:755  msg.value */\n      callvalue\n        /* \"contracts/BlockchainDevCourse/05.Smart_Wallet/MappingsStructTransactionExample.sol\":734:773  Transaction(msg.value, block.timestamp) */\n      dup2\n      mstore\n      0x20\n      add\n        /* \"contracts/BlockchainDevCourse/05.Smart_Wallet/MappingsStructTransactionExample.sol\":757:772  block.timestamp */\n      timestamp\n        /* \"contracts/BlockchainDevCourse/05.Smart_Wallet/MappingsStructTransactionExample.sol\":734:773  Transaction(msg.value, block.timestamp) */\n      dup2\n      mstore\n      pop\n        /* \"contracts/BlockchainDevCourse/05.Smart_Wallet/MappingsStructTransactionExample.sol\":705:773  Transaction memory deposit = Transaction(msg.value, block.timestamp) */\n      swap1\n      pop\n        /* \"contracts/BlockchainDevCourse/05.Smart_Wallet/MappingsStructTransactionExample.sol\":864:871  deposit */\n      dup1\n        /* \"contracts/BlockchainDevCourse/05.Smart_Wallet/MappingsStructTransactionExample.sol\":784:799  balanceReceived */\n      0x00\n        /* \"contracts/BlockchainDevCourse/05.Smart_Wallet/MappingsStructTransactionExample.sol\":784:811  balanceReceived[msg.sender] */\n      dup1\n        /* \"contracts/BlockchainDevCourse/05.Smart_Wallet/MappingsStructTransactionExample.sol\":800:810  msg.sender */\n      caller\n        /* \"contracts/BlockchainDevCourse/05.Smart_Wallet/MappingsStructTransactionExample.sol\":784:811  balanceReceived[msg.sender] */\n      0xffffffffffffffffffffffffffffffffffffffff\n      and\n      0xffffffffffffffffffffffffffffffffffffffff\n      and\n      dup2\n      mstore\n      0x20\n      add\n      swap1\n      dup2\n      mstore\n      0x20\n      add\n      0x00\n      keccak256\n        /* \"contracts/BlockchainDevCourse/05.Smart_Wallet/MappingsStructTransactionExample.sol\":784:820  balanceReceived[msg.sender].deposits */\n      0x02\n      add\n        /* \"contracts/BlockchainDevCourse/05.Smart_Wallet/MappingsStructTransactionExample.sol\":784:861  balanceReceived[msg.sender].deposits[balanceReceived[msg.sender].numDeposits] */\n      0x00\n        /* \"contracts/BlockchainDevCourse/05.Smart_Wallet/MappingsStructTransactionExample.sol\":821:836  balanceReceived */\n      dup1\n        /* \"contracts/BlockchainDevCourse/05.Smart_Wallet/MappingsStructTransactionExample.sol\":821:848  balanceReceived[msg.sender] */\n      0x00\n        /* \"contracts/BlockchainDevCourse/05.Smart_Wallet/MappingsStructTransactionExample.sol\":837:847  msg.sender */\n      caller\n        /* \"contracts/BlockchainDevCourse/05.Smart_Wallet/MappingsStructTransactionExample.sol\":821:848  balanceReceived[msg.sender] */\n      0xffffffffffffffffffffffffffffffffffffffff\n      and\n      0xffffffffffffffffffffffffffffffffffffffff\n      and\n      dup2\n      mstore\n      0x20\n      add\n      swap1\n      dup2\n      mstore\n      0x20\n      add\n      0x00\n      keccak256\n        /* \"contracts/BlockchainDevCourse/05.Smart_Wallet/MappingsStructTransactionExample.sol\":821:860  balanceReceived[msg.sender].numDeposits */\n      0x01\n      add\n      sload\n        /* \"contracts/BlockchainDevCourse/05.Smart_Wallet/MappingsStructTransactionExample.sol\":784:861  balanceReceived[msg.sender].deposits[balanceReceived[msg.sender].numDeposits] */\n      dup2\n      mstore\n      0x20\n      add\n      swap1\n      dup2\n      mstore\n      0x20\n      add\n      0x00\n      keccak256\n        /* \"contracts/BlockchainDevCourse/05.Smart_Wallet/MappingsStructTransactionExample.sol\":784:871  balanceReceived[msg.sender].deposits[balanceReceived[msg.sender].numDeposits] = deposit */\n      0x00\n      dup3\n      add\n      mload\n      dup2\n      0x00\n      add\n      sstore\n      0x20\n      dup3\n      add\n      mload\n      dup2\n      0x01\n      add\n      sstore\n      swap1\n      pop\n      pop\n        /* \"contracts/BlockchainDevCourse/05.Smart_Wallet/MappingsStructTransactionExample.sol\":882:897  balanceReceived */\n      0x00\n        /* \"contracts/BlockchainDevCourse/05.Smart_Wallet/MappingsStructTransactionExample.sol\":882:909  balanceReceived[msg.sender] */\n      dup1\n        /* \"contracts/BlockchainDevCourse/05.Smart_Wallet/MappingsStructTransactionExample.sol\":898:908  msg.sender */\n      caller\n        /* \"contracts/BlockchainDevCourse/05.Smart_Wallet/MappingsStructTransactionExample.sol\":882:909  balanceReceived[msg.sender] */\n      0xffffffffffffffffffffffffffffffffffffffff\n      and\n      0xffffffffffffffffffffffffffffffffffffffff\n      and\n      dup2\n      mstore\n      0x20\n      add\n      swap1\n      dup2\n      mstore\n      0x20\n      add\n      0x00\n      keccak256\n        /* \"contracts/BlockchainDevCourse/05.Smart_Wallet/MappingsStructTransactionExample.sol\":882:921  balanceReceived[msg.sender].numDeposits */\n      0x01\n      add\n      0x00\n        /* \"contracts/BlockchainDevCourse/05.Smart_Wallet/MappingsStructTransactionExample.sol\":882:923  balanceReceived[msg.sender].numDeposits++ */\n      dup2\n      sload\n      dup1\n      swap3\n      swap2\n      swap1\n      tag_28\n      swap1\n      tag_29\n      jump\t// in\n    tag_28:\n      swap2\n      swap1\n      pop\n      sstore\n      pop\n        /* \"contracts/BlockchainDevCourse/05.Smart_Wallet/MappingsStructTransactionExample.sol\":628:931  {... */\n      pop\n        /* \"contracts/BlockchainDevCourse/05.Smart_Wallet/MappingsStructTransactionExample.sol\":589:931  function depositMoney() public payable {... */\n      jump\t// out\n        /* \"contracts/BlockchainDevCourse/05.Smart_Wallet/MappingsStructTransactionExample.sol\":398:448  mapping(address => Balance) public balanceReceived */\n    tag_12:\n      mstore(0x20, 0x00)\n      dup1\n      0x00\n      mstore\n      keccak256(0x00, 0x40)\n      0x00\n      swap2\n      pop\n      swap1\n      pop\n      dup1\n      0x00\n      add\n      sload\n      swap1\n      dup1\n      0x01\n      add\n      sload\n      swap1\n      dup1\n      0x03\n      add\n      sload\n      swap1\n      pop\n      dup4\n      jump\t// out\n        /* \"contracts/BlockchainDevCourse/05.Smart_Wallet/MappingsStructTransactionExample.sol\":939:1477  function withdrawMoney(address payable _to, uint _amount) public payable  {... */\n    tag_18:\n        /* \"contracts/BlockchainDevCourse/05.Smart_Wallet/MappingsStructTransactionExample.sol\":1068:1075  _amount */\n      dup1\n        /* \"contracts/BlockchainDevCourse/05.Smart_Wallet/MappingsStructTransactionExample.sol\":1024:1039  balanceReceived */\n      0x00\n        /* \"contracts/BlockchainDevCourse/05.Smart_Wallet/MappingsStructTransactionExample.sol\":1024:1051  balanceReceived[msg.sender] */\n      dup1\n        /* \"contracts/BlockchainDevCourse/05.Smart_Wallet/MappingsStructTransactionExample.sol\":1040:1050  msg.sender */\n      caller\n        /* \"contracts/BlockchainDevCourse/05.Smart_Wallet/MappingsStructTransactionExample.sol\":1024:1051  balanceReceived[msg.sender] */\n      0xffffffffffffffffffffffffffffffffffffffff\n      and\n      0xffffffffffffffffffffffffffffffffffffffff\n      and\n      dup2\n      mstore\n      0x20\n      add\n      swap1\n      dup2\n      mstore\n      0x20\n      add\n      0x00\n      keccak256\n        /* \"contracts/BlockchainDevCourse/05.Smart_Wallet/MappingsStructTransactionExample.sol\":1024:1064  balanceReceived[msg.sender].totalBalance */\n      0x00\n      add\n      0x00\n        /* \"contracts/BlockchainDevCourse/05.Smart_Wallet/MappingsStructTransactionExample.sol\":1024:1075  balanceReceived[msg.sender].totalBalance -= _amount */\n      dup3\n      dup3\n      sload\n      tag_31\n      swap2\n      swap1\n      tag_32\n      jump\t// in\n    tag_31:\n      swap3\n      pop\n      pop\n      dup2\n      swap1\n      sstore\n      pop\n        /* \"contracts/BlockchainDevCourse/05.Smart_Wallet/MappingsStructTransactionExample.sol\":1170:1199  Transaction memory withdrawal */\n      0x00\n        /* \"contracts/BlockchainDevCourse/05.Smart_Wallet/MappingsStructTransactionExample.sol\":1202:1241  Transaction(msg.value, block.timestamp) */\n      mload(0x40)\n      dup1\n      0x40\n      add\n      0x40\n      mstore\n      dup1\n        /* \"contracts/BlockchainDevCourse/05.Smart_Wallet/MappingsStructTransactionExample.sol\":1214:1223  msg.value */\n      callvalue\n        /* \"contracts/BlockchainDevCourse/05.Smart_Wallet/MappingsStructTransactionExample.sol\":1202:1241  Transaction(msg.value, block.timestamp) */\n      dup2\n      mstore\n      0x20\n      add\n        /* \"contracts/BlockchainDevCourse/05.Smart_Wallet/MappingsStructTransactionExample.sol\":1225:1240  block.timestamp */\n      timestamp\n        /* \"contracts/BlockchainDevCourse/05.Smart_Wallet/MappingsStructTransactionExample.sol\":1202:1241  Transaction(msg.value, block.timestamp) */\n      dup2\n      mstore\n      pop\n        /* \"contracts/BlockchainDevCourse/05.Smart_Wallet/MappingsStructTransactionExample.sol\":1170:1241  Transaction memory withdrawal = Transaction(msg.value, block.timestamp) */\n      swap1\n      pop\n        /* \"contracts/BlockchainDevCourse/05.Smart_Wallet/MappingsStructTransactionExample.sol\":1338:1348  withdrawal */\n      dup1\n        /* \"contracts/BlockchainDevCourse/05.Smart_Wallet/MappingsStructTransactionExample.sol\":1252:1267  balanceReceived */\n      0x00\n        /* \"contracts/BlockchainDevCourse/05.Smart_Wallet/MappingsStructTransactionExample.sol\":1252:1279  balanceReceived[msg.sender] */\n      dup1\n        /* \"contracts/BlockchainDevCourse/05.Smart_Wallet/MappingsStructTransactionExample.sol\":1268:1278  msg.sender */\n      caller\n        /* \"contracts/BlockchainDevCourse/05.Smart_Wallet/MappingsStructTransactionExample.sol\":1252:1279  balanceReceived[msg.sender] */\n      0xffffffffffffffffffffffffffffffffffffffff\n      and\n      0xffffffffffffffffffffffffffffffffffffffff\n      and\n      dup2\n      mstore\n      0x20\n      add\n      swap1\n      dup2\n      mstore\n      0x20\n      add\n      0x00\n      keccak256\n        /* \"contracts/BlockchainDevCourse/05.Smart_Wallet/MappingsStructTransactionExample.sol\":1252:1291  balanceReceived[msg.sender].withdrawals */\n      0x04\n      add\n        /* \"contracts/BlockchainDevCourse/05.Smart_Wallet/MappingsStructTransactionExample.sol\":1252:1335  balanceReceived[msg.sender].withdrawals[balanceReceived[msg.sender].numWithdrawals] */\n      0x00\n        /* \"contracts/BlockchainDevCourse/05.Smart_Wallet/MappingsStructTransactionExample.sol\":1292:1307  balanceReceived */\n      dup1\n        /* \"contracts/BlockchainDevCourse/05.Smart_Wallet/MappingsStructTransactionExample.sol\":1292:1319  balanceReceived[msg.sender] */\n      0x00\n        /* \"contracts/BlockchainDevCourse/05.Smart_Wallet/MappingsStructTransactionExample.sol\":1308:1318  msg.sender */\n      caller\n        /* \"contracts/BlockchainDevCourse/05.Smart_Wallet/MappingsStructTransactionExample.sol\":1292:1319  balanceReceived[msg.sender] */\n      0xffffffffffffffffffffffffffffffffffffffff\n      and\n      0xffffffffffffffffffffffffffffffffffffffff\n      and\n      dup2\n      mstore\n      0x20\n      add\n      swap1\n      dup2\n      mstore\n      0x20\n      add\n      0x00\n      keccak256\n        /* \"contracts/BlockchainDevCourse/05.Smart_Wallet/MappingsStructTransactionExample.sol\":1292:1334  balanceReceived[msg.sender].numWithdrawals */\n      0x03\n      add\n      sload\n        /* \"contracts/BlockchainDevCourse/05.Smart_Wallet/MappingsStructTransactionExample.sol\":1252:1335  balanceReceived[msg.sender].withdrawals[balanceReceived[msg.sender].numWithdrawals] */\n      dup2\n      mstore\n      0x20\n      add\n      swap1\n      dup2\n      mstore\n      0x20\n      add\n      0x00\n      keccak256\n        /* \"contracts/BlockchainDevCourse/05.Smart_Wallet/MappingsStructTransactionExample.sol\":1252:1348  balanceReceived[msg.sender].withdrawals[balanceReceived[msg.sender].numWithdrawals] = withdrawal */\n      0x00\n      dup3\n      add\n      mload\n      dup2\n      0x00\n      add\n      sstore\n      0x20\n      dup3\n      add\n      mload\n      dup2\n      0x01\n      add\n      sstore\n      swap1\n      pop\n      pop\n        /* \"contracts/BlockchainDevCourse/05.Smart_Wallet/MappingsStructTransactionExample.sol\":1359:1374  balanceReceived */\n      0x00\n        /* \"contracts/BlockchainDevCourse/05.Smart_Wallet/MappingsStructTransactionExample.sol\":1359:1386  balanceReceived[msg.sender] */\n      dup1\n        /* \"contracts/BlockchainDevCourse/05.Smart_Wallet/MappingsStructTransactionExample.sol\":1375:1385  msg.sender */\n      caller\n        /* \"contracts/BlockchainDevCourse/05.Smart_Wallet/MappingsStructTransactionExample.sol\":1359:1386  balanceReceived[msg.sender] */\n      0xffffffffffffffffffffffffffffffffffffffff\n      and\n      0xffffffffffffffffffffffffffffffffffffffff\n      and\n      dup2\n      mstore\n      0x20\n      add\n      swap1\n      dup2\n      mstore\n      0x20\n      add\n      0x00\n      keccak256\n        /* \"contracts/BlockchainDevCourse/05.Smart_Wallet/MappingsStructTransactionExample.sol\":1359:1401  balanceReceived[msg.sender].numWithdrawals */\n      0x03\n      add\n      0x00\n        /* \"contracts/BlockchainDevCourse/05.Smart_Wallet/MappingsStructTransactionExample.sol\":1359:1403  balanceReceived[msg.sender].numWithdrawals++ */\n      dup2\n      sload\n      dup1\n      swap3\n      swap2\n      swap1\n      tag_33\n      swap1\n      tag_29\n      jump\t// in\n    tag_33:\n      swap2\n      swap1\n      pop\n      sstore\n      pop\n        /* \"contracts/BlockchainDevCourse/05.Smart_Wallet/MappingsStructTransactionExample.sol\":1448:1451  _to */\n      dup3\n        /* \"contracts/BlockchainDevCourse/05.Smart_Wallet/MappingsStructTransactionExample.sol\":1448:1460  _to.transfer */\n      0xffffffffffffffffffffffffffffffffffffffff\n      and\n        /* \"contracts/BlockchainDevCourse/05.Smart_Wallet/MappingsStructTransactionExample.sol\":1448:1469  _to.transfer(_amount) */\n      0x08fc\n        /* \"contracts/BlockchainDevCourse/05.Smart_Wallet/MappingsStructTransactionExample.sol\":1461:1468  _amount */\n      dup4\n        /* \"contracts/BlockchainDevCourse/05.Smart_Wallet/MappingsStructTransactionExample.sol\":1448:1469  _to.transfer(_amount) */\n      swap1\n      dup2\n      iszero\n      mul\n      swap1\n      mload(0x40)\n      0x00\n      mload(0x40)\n      dup1\n      dup4\n      sub\n      dup2\n      dup6\n      dup9\n      dup9\n      call\n      swap4\n      pop\n      pop\n      pop\n      pop\n      iszero\n      dup1\n      iszero\n      tag_35\n      jumpi\n      returndatasize\n      0x00\n      dup1\n      returndatacopy\n      revert(0x00, returndatasize)\n    tag_35:\n      pop\n        /* \"contracts/BlockchainDevCourse/05.Smart_Wallet/MappingsStructTransactionExample.sol\":1013:1477  {... */\n      pop\n        /* \"contracts/BlockchainDevCourse/05.Smart_Wallet/MappingsStructTransactionExample.sol\":939:1477  function withdrawMoney(address payable _to, uint _amount) public payable  {... */\n      pop\n      pop\n      jump\t// out\n        /* \"contracts/BlockchainDevCourse/05.Smart_Wallet/MappingsStructTransactionExample.sol\":459:581  function getBalance(address _addr) public view returns(uint) {... */\n    tag_22:\n        /* \"contracts/BlockchainDevCourse/05.Smart_Wallet/MappingsStructTransactionExample.sol\":514:518  uint */\n      0x00\n        /* \"contracts/BlockchainDevCourse/05.Smart_Wallet/MappingsStructTransactionExample.sol\":538:553  balanceReceived */\n      dup1\n        /* \"contracts/BlockchainDevCourse/05.Smart_Wallet/MappingsStructTransactionExample.sol\":538:560  balanceReceived[_addr] */\n      0x00\n        /* \"contracts/BlockchainDevCourse/05.Smart_Wallet/MappingsStructTransactionExample.sol\":554:559  _addr */\n      dup4\n        /* \"contracts/BlockchainDevCourse/05.Smart_Wallet/MappingsStructTransactionExample.sol\":538:560  balanceReceived[_addr] */\n      0xffffffffffffffffffffffffffffffffffffffff\n      and\n      0xffffffffffffffffffffffffffffffffffffffff\n      and\n      dup2\n      mstore\n      0x20\n      add\n      swap1\n      dup2\n      mstore\n      0x20\n      add\n      0x00\n      keccak256\n        /* \"contracts/BlockchainDevCourse/05.Smart_Wallet/MappingsStructTransactionExample.sol\":538:573  balanceReceived[_addr].totalBalance */\n      0x00\n      add\n      sload\n        /* \"contracts/BlockchainDevCourse/05.Smart_Wallet/MappingsStructTransactionExample.sol\":531:573  return balanceReceived[_addr].totalBalance */\n      swap1\n      pop\n        /* \"contracts/BlockchainDevCourse/05.Smart_Wallet/MappingsStructTransactionExample.sol\":459:581  function getBalance(address _addr) public view returns(uint) {... */\n      swap2\n      swap1\n      pop\n      jump\t// out\n        /* \"#utility.yul\":88:205   */\n    tag_38:\n        /* \"#utility.yul\":197:198   */\n      0x00\n        /* \"#utility.yul\":194:195   */\n      dup1\n        /* \"#utility.yul\":187:199   */\n      revert\n        /* \"#utility.yul\":334:460   */\n    tag_40:\n        /* \"#utility.yul\":371:378   */\n      0x00\n        /* \"#utility.yul\":411:453   */\n      0xffffffffffffffffffffffffffffffffffffffff\n        /* \"#utility.yul\":404:409   */\n      dup3\n        /* \"#utility.yul\":400:454   */\n      and\n        /* \"#utility.yul\":389:454   */\n      swap1\n      pop\n        /* \"#utility.yul\":334:460   */\n      swap2\n      swap1\n      pop\n      jump\t// out\n        /* \"#utility.yul\":466:562   */\n    tag_41:\n        /* \"#utility.yul\":503:510   */\n      0x00\n        /* \"#utility.yul\":532:556   */\n      tag_58\n        /* \"#utility.yul\":550:555   */\n      dup3\n        /* \"#utility.yul\":532:556   */\n      tag_40\n      jump\t// in\n    tag_58:\n        /* \"#utility.yul\":521:556   */\n      swap1\n      pop\n        /* \"#utility.yul\":466:562   */\n      swap2\n      swap1\n      pop\n      jump\t// out\n        /* \"#utility.yul\":568:690   */\n    tag_42:\n        /* \"#utility.yul\":641:665   */\n      tag_60\n        /* \"#utility.yul\":659:664   */\n      dup2\n        /* \"#utility.yul\":641:665   */\n      tag_41\n      jump\t// in\n    tag_60:\n        /* \"#utility.yul\":634:639   */\n      dup2\n        /* \"#utility.yul\":631:666   */\n      eq\n        /* \"#utility.yul\":621:684   */\n      tag_61\n      jumpi\n        /* \"#utility.yul\":680:681   */\n      0x00\n        /* \"#utility.yul\":677:678   */\n      dup1\n        /* \"#utility.yul\":670:682   */\n      revert\n        /* \"#utility.yul\":621:684   */\n    tag_61:\n        /* \"#utility.yul\":568:690   */\n      pop\n      jump\t// out\n        /* \"#utility.yul\":696:835   */\n    tag_43:\n        /* \"#utility.yul\":742:747   */\n      0x00\n        /* \"#utility.yul\":780:786   */\n      dup2\n        /* \"#utility.yul\":767:787   */\n      calldataload\n        /* \"#utility.yul\":758:787   */\n      swap1\n      pop\n        /* \"#utility.yul\":796:829   */\n      tag_63\n        /* \"#utility.yul\":823:828   */\n      dup2\n        /* \"#utility.yul\":796:829   */\n      tag_42\n      jump\t// in\n    tag_63:\n        /* \"#utility.yul\":696:835   */\n      swap3\n      swap2\n      pop\n      pop\n      jump\t// out\n        /* \"#utility.yul\":841:1170   */\n    tag_11:\n        /* \"#utility.yul\":900:906   */\n      0x00\n        /* \"#utility.yul\":949:951   */\n      0x20\n        /* \"#utility.yul\":937:946   */\n      dup3\n        /* \"#utility.yul\":928:935   */\n      dup5\n        /* \"#utility.yul\":924:947   */\n      sub\n        /* \"#utility.yul\":920:952   */\n      slt\n        /* \"#utility.yul\":917:1036   */\n      iszero\n      tag_65\n      jumpi\n        /* \"#utility.yul\":955:1034   */\n      tag_66\n      tag_38\n      jump\t// in\n    tag_66:\n        /* \"#utility.yul\":917:1036   */\n    tag_65:\n        /* \"#utility.yul\":1075:1076   */\n      0x00\n        /* \"#utility.yul\":1100:1153   */\n      tag_67\n        /* \"#utility.yul\":1145:1152   */\n      dup5\n        /* \"#utility.yul\":1136:1142   */\n      dup3\n        /* \"#utility.yul\":1125:1134   */\n      dup6\n        /* \"#utility.yul\":1121:1143   */\n      add\n        /* \"#utility.yul\":1100:1153   */\n      tag_43\n      jump\t// in\n    tag_67:\n        /* \"#utility.yul\":1090:1153   */\n      swap2\n      pop\n        /* \"#utility.yul\":1046:1163   */\n      pop\n        /* \"#utility.yul\":841:1170   */\n      swap3\n      swap2\n      pop\n      pop\n      jump\t// out\n        /* \"#utility.yul\":1176:1253   */\n    tag_44:\n        /* \"#utility.yul\":1213:1220   */\n      0x00\n        /* \"#utility.yul\":1242:1247   */\n      dup2\n        /* \"#utility.yul\":1231:1247   */\n      swap1\n      pop\n        /* \"#utility.yul\":1176:1253   */\n      swap2\n      swap1\n      pop\n      jump\t// out\n        /* \"#utility.yul\":1259:1377   */\n    tag_45:\n        /* \"#utility.yul\":1346:1370   */\n      tag_70\n        /* \"#utility.yul\":1364:1369   */\n      dup2\n        /* \"#utility.yul\":1346:1370   */\n      tag_44\n      jump\t// in\n    tag_70:\n        /* \"#utility.yul\":1341:1344   */\n      dup3\n        /* \"#utility.yul\":1334:1371   */\n      mstore\n        /* \"#utility.yul\":1259:1377   */\n      pop\n      pop\n      jump\t// out\n        /* \"#utility.yul\":1383:1825   */\n    tag_14:\n        /* \"#utility.yul\":1532:1536   */\n      0x00\n        /* \"#utility.yul\":1570:1572   */\n      0x60\n        /* \"#utility.yul\":1559:1568   */\n      dup3\n        /* \"#utility.yul\":1555:1573   */\n      add\n        /* \"#utility.yul\":1547:1573   */\n      swap1\n      pop\n        /* \"#utility.yul\":1583:1654   */\n      tag_72\n        /* \"#utility.yul\":1651:1652   */\n      0x00\n        /* \"#utility.yul\":1640:1649   */\n      dup4\n        /* \"#utility.yul\":1636:1653   */\n      add\n        /* \"#utility.yul\":1627:1633   */\n      dup7\n        /* \"#utility.yul\":1583:1654   */\n      tag_45\n      jump\t// in\n    tag_72:\n        /* \"#utility.yul\":1664:1736   */\n      tag_73\n        /* \"#utility.yul\":1732:1734   */\n      0x20\n        /* \"#utility.yul\":1721:1730   */\n      dup4\n        /* \"#utility.yul\":1717:1735   */\n      add\n        /* \"#utility.yul\":1708:1714   */\n      dup6\n        /* \"#utility.yul\":1664:1736   */\n      tag_45\n      jump\t// in\n    tag_73:\n        /* \"#utility.yul\":1746:1818   */\n      tag_74\n        /* \"#utility.yul\":1814:1816   */\n      0x40\n        /* \"#utility.yul\":1803:1812   */\n      dup4\n        /* \"#utility.yul\":1799:1817   */\n      add\n        /* \"#utility.yul\":1790:1796   */\n      dup5\n        /* \"#utility.yul\":1746:1818   */\n      tag_45\n      jump\t// in\n    tag_74:\n        /* \"#utility.yul\":1383:1825   */\n      swap5\n      swap4\n      pop\n      pop\n      pop\n      pop\n      jump\t// out\n        /* \"#utility.yul\":1831:1935   */\n    tag_46:\n        /* \"#utility.yul\":1876:1883   */\n      0x00\n        /* \"#utility.yul\":1905:1929   */\n      tag_76\n        /* \"#utility.yul\":1923:1928   */\n      dup3\n        /* \"#utility.yul\":1905:1929   */\n      tag_40\n      jump\t// in\n    tag_76:\n        /* \"#utility.yul\":1894:1929   */\n      swap1\n      pop\n        /* \"#utility.yul\":1831:1935   */\n      swap2\n      swap1\n      pop\n      jump\t// out\n        /* \"#utility.yul\":1941:2079   */\n    tag_47:\n        /* \"#utility.yul\":2022:2054   */\n      tag_78\n        /* \"#utility.yul\":2048:2053   */\n      dup2\n        /* \"#utility.yul\":2022:2054   */\n      tag_46\n      jump\t// in\n    tag_78:\n        /* \"#utility.yul\":2015:2020   */\n      dup2\n        /* \"#utility.yul\":2012:2055   */\n      eq\n        /* \"#utility.yul\":2002:2073   */\n      tag_79\n      jumpi\n        /* \"#utility.yul\":2069:2070   */\n      0x00\n        /* \"#utility.yul\":2066:2067   */\n      dup1\n        /* \"#utility.yul\":2059:2071   */\n      revert\n        /* \"#utility.yul\":2002:2073   */\n    tag_79:\n        /* \"#utility.yul\":1941:2079   */\n      pop\n      jump\t// out\n        /* \"#utility.yul\":2085:2240   */\n    tag_48:\n        /* \"#utility.yul\":2139:2144   */\n      0x00\n        /* \"#utility.yul\":2177:2183   */\n      dup2\n        /* \"#utility.yul\":2164:2184   */\n      calldataload\n        /* \"#utility.yul\":2155:2184   */\n      swap1\n      pop\n        /* \"#utility.yul\":2193:2234   */\n      tag_81\n        /* \"#utility.yul\":2228:2233   */\n      dup2\n        /* \"#utility.yul\":2193:2234   */\n      tag_47\n      jump\t// in\n    tag_81:\n        /* \"#utility.yul\":2085:2240   */\n      swap3\n      swap2\n      pop\n      pop\n      jump\t// out\n        /* \"#utility.yul\":2246:2368   */\n    tag_49:\n        /* \"#utility.yul\":2319:2343   */\n      tag_83\n        /* \"#utility.yul\":2337:2342   */\n      dup2\n        /* \"#utility.yul\":2319:2343   */\n      tag_44\n      jump\t// in\n    tag_83:\n        /* \"#utility.yul\":2312:2317   */\n      dup2\n        /* \"#utility.yul\":2309:2344   */\n      eq\n        /* \"#utility.yul\":2299:2362   */\n      tag_84\n      jumpi\n        /* \"#utility.yul\":2358:2359   */\n      0x00\n        /* \"#utility.yul\":2355:2356   */\n      dup1\n        /* \"#utility.yul\":2348:2360   */\n      revert\n        /* \"#utility.yul\":2299:2362   */\n    tag_84:\n        /* \"#utility.yul\":2246:2368   */\n      pop\n      jump\t// out\n        /* \"#utility.yul\":2374:2513   */\n    tag_50:\n        /* \"#utility.yul\":2420:2425   */\n      0x00\n        /* \"#utility.yul\":2458:2464   */\n      dup2\n        /* \"#utility.yul\":2445:2465   */\n      calldataload\n        /* \"#utility.yul\":2436:2465   */\n      swap1\n      pop\n        /* \"#utility.yul\":2474:2507   */\n      tag_86\n        /* \"#utility.yul\":2501:2506   */\n      dup2\n        /* \"#utility.yul\":2474:2507   */\n      tag_49\n      jump\t// in\n    tag_86:\n        /* \"#utility.yul\":2374:2513   */\n      swap3\n      swap2\n      pop\n      pop\n      jump\t// out\n        /* \"#utility.yul\":2519:3009   */\n    tag_17:\n        /* \"#utility.yul\":2595:2601   */\n      0x00\n        /* \"#utility.yul\":2603:2609   */\n      dup1\n        /* \"#utility.yul\":2652:2654   */\n      0x40\n        /* \"#utility.yul\":2640:2649   */\n      dup4\n        /* \"#utility.yul\":2631:2638   */\n      dup6\n        /* \"#utility.yul\":2627:2650   */\n      sub\n        /* \"#utility.yul\":2623:2655   */\n      slt\n        /* \"#utility.yul\":2620:2739   */\n      iszero\n      tag_88\n      jumpi\n        /* \"#utility.yul\":2658:2737   */\n      tag_89\n      tag_38\n      jump\t// in\n    tag_89:\n        /* \"#utility.yul\":2620:2739   */\n    tag_88:\n        /* \"#utility.yul\":2778:2779   */\n      0x00\n        /* \"#utility.yul\":2803:2864   */\n      tag_90\n        /* \"#utility.yul\":2856:2863   */\n      dup6\n        /* \"#utility.yul\":2847:2853   */\n      dup3\n        /* \"#utility.yul\":2836:2845   */\n      dup7\n        /* \"#utility.yul\":2832:2854   */\n      add\n        /* \"#utility.yul\":2803:2864   */\n      tag_48\n      jump\t// in\n    tag_90:\n        /* \"#utility.yul\":2793:2864   */\n      swap3\n      pop\n        /* \"#utility.yul\":2749:2874   */\n      pop\n        /* \"#utility.yul\":2913:2915   */\n      0x20\n        /* \"#utility.yul\":2939:2992   */\n      tag_91\n        /* \"#utility.yul\":2984:2991   */\n      dup6\n        /* \"#utility.yul\":2975:2981   */\n      dup3\n        /* \"#utility.yul\":2964:2973   */\n      dup7\n        /* \"#utility.yul\":2960:2982   */\n      add\n        /* \"#utility.yul\":2939:2992   */\n      tag_50\n      jump\t// in\n    tag_91:\n        /* \"#utility.yul\":2929:2992   */\n      swap2\n      pop\n        /* \"#utility.yul\":2884:3002   */\n      pop\n        /* \"#utility.yul\":2519:3009   */\n      swap3\n      pop\n      swap3\n      swap1\n      pop\n      jump\t// out\n        /* \"#utility.yul\":3015:3237   */\n    tag_24:\n        /* \"#utility.yul\":3108:3112   */\n      0x00\n        /* \"#utility.yul\":3146:3148   */\n      0x20\n        /* \"#utility.yul\":3135:3144   */\n      dup3\n        /* \"#utility.yul\":3131:3149   */\n      add\n        /* \"#utility.yul\":3123:3149   */\n      swap1\n      pop\n        /* \"#utility.yul\":3159:3230   */\n      tag_93\n        /* \"#utility.yul\":3227:3228   */\n      0x00\n        /* \"#utility.yul\":3216:3225   */\n      dup4\n        /* \"#utility.yul\":3212:3229   */\n      add\n        /* \"#utility.yul\":3203:3209   */\n      dup5\n        /* \"#utility.yul\":3159:3230   */\n      tag_45\n      jump\t// in\n    tag_93:\n        /* \"#utility.yul\":3015:3237   */\n      swap3\n      swap2\n      pop\n      pop\n      jump\t// out\n        /* \"#utility.yul\":3243:3423   */\n    tag_51:\n        /* \"#utility.yul\":3291:3368   */\n      0x4e487b7100000000000000000000000000000000000000000000000000000000\n        /* \"#utility.yul\":3288:3289   */\n      0x00\n        /* \"#utility.yul\":3281:3369   */\n      mstore\n        /* \"#utility.yul\":3388:3392   */\n      0x11\n        /* \"#utility.yul\":3385:3386   */\n      0x04\n        /* \"#utility.yul\":3378:3393   */\n      mstore\n        /* \"#utility.yul\":3412:3416   */\n      0x24\n        /* \"#utility.yul\":3409:3410   */\n      0x00\n        /* \"#utility.yul\":3402:3417   */\n      revert\n        /* \"#utility.yul\":3429:3734   */\n    tag_27:\n        /* \"#utility.yul\":3469:3472   */\n      0x00\n        /* \"#utility.yul\":3488:3508   */\n      tag_96\n        /* \"#utility.yul\":3506:3507   */\n      dup3\n        /* \"#utility.yul\":3488:3508   */\n      tag_44\n      jump\t// in\n    tag_96:\n        /* \"#utility.yul\":3483:3508   */\n      swap2\n      pop\n        /* \"#utility.yul\":3522:3542   */\n      tag_97\n        /* \"#utility.yul\":3540:3541   */\n      dup4\n        /* \"#utility.yul\":3522:3542   */\n      tag_44\n      jump\t// in\n    tag_97:\n        /* \"#utility.yul\":3517:3542   */\n      swap3\n      pop\n        /* \"#utility.yul\":3676:3677   */\n      dup3\n        /* \"#utility.yul\":3608:3674   */\n      0xffffffffffffffffffffffffffffffffffffffffffffffffffffffffffffffff\n        /* \"#utility.yul\":3604:3678   */\n      sub\n        /* \"#utility.yul\":3601:3602   */\n      dup3\n        /* \"#utility.yul\":3598:3679   */\n      gt\n        /* \"#utility.yul\":3595:3702   */\n      iszero\n      tag_98\n      jumpi\n        /* \"#utility.yul\":3682:3700   */\n      tag_99\n      tag_51\n      jump\t// in\n    tag_99:\n        /* \"#utility.yul\":3595:3702   */\n    tag_98:\n        /* \"#utility.yul\":3726:3727   */\n      dup3\n        /* \"#utility.yul\":3723:3724   */\n      dup3\n        /* \"#utility.yul\":3719:3728   */\n      add\n        /* \"#utility.yul\":3712:3728   */\n      swap1\n      pop\n        /* \"#utility.yul\":3429:3734   */\n      swap3\n      swap2\n      pop\n      pop\n      jump\t// out\n        /* \"#utility.yul\":3740:3973   */\n    tag_29:\n        /* \"#utility.yul\":3779:3782   */\n      0x00\n        /* \"#utility.yul\":3802:3826   */\n      tag_101\n        /* \"#utility.yul\":3820:3825   */\n      dup3\n        /* \"#utility.yul\":3802:3826   */\n      tag_44\n      jump\t// in\n    tag_101:\n        /* \"#utility.yul\":3793:3826   */\n      swap2\n      pop\n        /* \"#utility.yul\":3848:3914   */\n      0xffffffffffffffffffffffffffffffffffffffffffffffffffffffffffffffff\n        /* \"#utility.yul\":3841:3846   */\n      dup3\n        /* \"#utility.yul\":3838:3915   */\n      sub\n        /* \"#utility.yul\":3835:3938   */\n      tag_102\n      jumpi\n        /* \"#utility.yul\":3918:3936   */\n      tag_103\n      tag_51\n      jump\t// in\n    tag_103:\n        /* \"#utility.yul\":3835:3938   */\n    tag_102:\n        /* \"#utility.yul\":3965:3966   */\n      0x01\n        /* \"#utility.yul\":3958:3963   */\n      dup3\n        /* \"#utility.yul\":3954:3967   */\n      add\n        /* \"#utility.yul\":3947:3967   */\n      swap1\n      pop\n        /* \"#utility.yul\":3740:3973   */\n      swap2\n      swap1\n      pop\n      jump\t// out\n        /* \"#utility.yul\":3979:4170   */\n    tag_32:\n        /* \"#utility.yul\":4019:4023   */\n      0x00\n        /* \"#utility.yul\":4039:4059   */\n      tag_105\n        /* \"#utility.yul\":4057:4058   */\n      dup3\n        /* \"#utility.yul\":4039:4059   */\n      tag_44\n      jump\t// in\n    tag_105:\n        /* \"#utility.yul\":4034:4059   */\n      swap2\n      pop\n        /* \"#utility.yul\":4073:4093   */\n      tag_106\n        /* \"#utility.yul\":4091:4092   */\n      dup4\n        /* \"#utility.yul\":4073:4093   */\n      tag_44\n      jump\t// in\n    tag_106:\n        /* \"#utility.yul\":4068:4093   */\n      swap3\n      pop\n        /* \"#utility.yul\":4112:4113   */\n      dup3\n        /* \"#utility.yul\":4109:4110   */\n      dup3\n        /* \"#utility.yul\":4106:4114   */\n      lt\n        /* \"#utility.yul\":4103:4137   */\n      iszero\n      tag_107\n      jumpi\n        /* \"#utility.yul\":4117:4135   */\n      tag_108\n      tag_51\n      jump\t// in\n    tag_108:\n        /* \"#utility.yul\":4103:4137   */\n    tag_107:\n        /* \"#utility.yul\":4162:4163   */\n      dup3\n        /* \"#utility.yul\":4159:4160   */\n      dup3\n        /* \"#utility.yul\":4155:4164   */\n      sub\n        /* \"#utility.yul\":4147:4164   */\n      swap1\n      pop\n        /* \"#utility.yul\":3979:4170   */\n      swap3\n      swap2\n      pop\n      pop\n      jump\t// out\n\n    auxdata: 0xa2646970667358221220684e27264670e4d8d264ba9800cd6640db8402880f487c6a788a807e0317b9e664736f6c634300080e0033\n}\n",
				"bytecode": {
					"linkReferences": {},
					"object": "608060405234801561001057600080fd5b5061076c806100206000396000f3fe60806040526004361061003f5760003560e01c806316c05aa214610044578063d18a42e11461004e578063f274c8971461008d578063f8b2cb4f146100a9575b600080fd5b61004c6100e6565b005b34801561005a57600080fd5b50610075600480360381019061007091906104f3565b61025c565b60405161008493929190610539565b60405180910390f35b6100a760048036038101906100a291906105da565b610286565b005b3480156100b557600080fd5b506100d060048036038101906100cb91906104f3565b610445565b6040516100dd919061061a565b60405180910390f35b346000803373ffffffffffffffffffffffffffffffffffffffff1673ffffffffffffffffffffffffffffffffffffffff16815260200190815260200160002060000160008282546101379190610664565b9250508190555060006040518060400160405280348152602001428152509050806000803373ffffffffffffffffffffffffffffffffffffffff1673ffffffffffffffffffffffffffffffffffffffff16815260200190815260200160002060020160008060003373ffffffffffffffffffffffffffffffffffffffff1673ffffffffffffffffffffffffffffffffffffffff16815260200190815260200160002060010154815260200190815260200160002060008201518160000155602082015181600101559050506000803373ffffffffffffffffffffffffffffffffffffffff1673ffffffffffffffffffffffffffffffffffffffff1681526020019081526020016000206001016000815480929190610254906106ba565b919050555050565b60006020528060005260406000206000915090508060000154908060010154908060030154905083565b806000803373ffffffffffffffffffffffffffffffffffffffff1673ffffffffffffffffffffffffffffffffffffffff16815260200190815260200160002060000160008282546102d79190610702565b9250508190555060006040518060400160405280348152602001428152509050806000803373ffffffffffffffffffffffffffffffffffffffff1673ffffffffffffffffffffffffffffffffffffffff16815260200190815260200160002060040160008060003373ffffffffffffffffffffffffffffffffffffffff1673ffffffffffffffffffffffffffffffffffffffff16815260200190815260200160002060030154815260200190815260200160002060008201518160000155602082015181600101559050506000803373ffffffffffffffffffffffffffffffffffffffff1673ffffffffffffffffffffffffffffffffffffffff16815260200190815260200160002060030160008154809291906103f4906106ba565b91905055508273ffffffffffffffffffffffffffffffffffffffff166108fc839081150290604051600060405180830381858888f1935050505015801561043f573d6000803e3d6000fd5b50505050565b60008060008373ffffffffffffffffffffffffffffffffffffffff1673ffffffffffffffffffffffffffffffffffffffff168152602001908152602001600020600001549050919050565b600080fd5b600073ffffffffffffffffffffffffffffffffffffffff82169050919050565b60006104c082610495565b9050919050565b6104d0816104b5565b81146104db57600080fd5b50565b6000813590506104ed816104c7565b92915050565b60006020828403121561050957610508610490565b5b6000610517848285016104de565b91505092915050565b6000819050919050565b61053381610520565b82525050565b600060608201905061054e600083018661052a565b61055b602083018561052a565b610568604083018461052a565b949350505050565b600061057b82610495565b9050919050565b61058b81610570565b811461059657600080fd5b50565b6000813590506105a881610582565b92915050565b6105b781610520565b81146105c257600080fd5b50565b6000813590506105d4816105ae565b92915050565b600080604083850312156105f1576105f0610490565b5b60006105ff85828601610599565b9250506020610610858286016105c5565b9150509250929050565b600060208201905061062f600083018461052a565b92915050565b7f4e487b7100000000000000000000000000000000000000000000000000000000600052601160045260246000fd5b600061066f82610520565b915061067a83610520565b9250827fffffffffffffffffffffffffffffffffffffffffffffffffffffffffffffffff038211156106af576106ae610635565b5b828201905092915050565b60006106c582610520565b91507fffffffffffffffffffffffffffffffffffffffffffffffffffffffffffffffff82036106f7576106f6610635565b5b600182019050919050565b600061070d82610520565b915061071883610520565b92508282101561072b5761072a610635565b5b82820390509291505056fea2646970667358221220684e27264670e4d8d264ba9800cd6640db8402880f487c6a788a807e0317b9e664736f6c634300080e0033",
					"opcodes": "PUSH1 0x80 PUSH1 0x40 MSTORE CALLVALUE DUP1 ISZERO PUSH2 0x10 JUMPI PUSH1 0x0 DUP1 REVERT JUMPDEST POP PUSH2 0x76C DUP1 PUSH2 0x20 PUSH1 0x0 CODECOPY PUSH1 0x0 RETURN INVALID PUSH1 0x80 PUSH1 0x40 MSTORE PUSH1 0x4 CALLDATASIZE LT PUSH2 0x3F JUMPI PUSH1 0x0 CALLDATALOAD PUSH1 0xE0 SHR DUP1 PUSH4 0x16C05AA2 EQ PUSH2 0x44 JUMPI DUP1 PUSH4 0xD18A42E1 EQ PUSH2 0x4E JUMPI DUP1 PUSH4 0xF274C897 EQ PUSH2 0x8D JUMPI DUP1 PUSH4 0xF8B2CB4F EQ PUSH2 0xA9 JUMPI JUMPDEST PUSH1 0x0 DUP1 REVERT JUMPDEST PUSH2 0x4C PUSH2 0xE6 JUMP JUMPDEST STOP JUMPDEST CALLVALUE DUP1 ISZERO PUSH2 0x5A JUMPI PUSH1 0x0 DUP1 REVERT JUMPDEST POP PUSH2 0x75 PUSH1 0x4 DUP1 CALLDATASIZE SUB DUP2 ADD SWAP1 PUSH2 0x70 SWAP2 SWAP1 PUSH2 0x4F3 JUMP JUMPDEST PUSH2 0x25C JUMP JUMPDEST PUSH1 0x40 MLOAD PUSH2 0x84 SWAP4 SWAP3 SWAP2 SWAP1 PUSH2 0x539 JUMP JUMPDEST PUSH1 0x40 MLOAD DUP1 SWAP2 SUB SWAP1 RETURN JUMPDEST PUSH2 0xA7 PUSH1 0x4 DUP1 CALLDATASIZE SUB DUP2 ADD SWAP1 PUSH2 0xA2 SWAP2 SWAP1 PUSH2 0x5DA JUMP JUMPDEST PUSH2 0x286 JUMP JUMPDEST STOP JUMPDEST CALLVALUE DUP1 ISZERO PUSH2 0xB5 JUMPI PUSH1 0x0 DUP1 REVERT JUMPDEST POP PUSH2 0xD0 PUSH1 0x4 DUP1 CALLDATASIZE SUB DUP2 ADD SWAP1 PUSH2 0xCB SWAP2 SWAP1 PUSH2 0x4F3 JUMP JUMPDEST PUSH2 0x445 JUMP JUMPDEST PUSH1 0x40 MLOAD PUSH2 0xDD SWAP2 SWAP1 PUSH2 0x61A JUMP JUMPDEST PUSH1 0x40 MLOAD DUP1 SWAP2 SUB SWAP1 RETURN JUMPDEST CALLVALUE PUSH1 0x0 DUP1 CALLER PUSH20 0xFFFFFFFFFFFFFFFFFFFFFFFFFFFFFFFFFFFFFFFF AND PUSH20 0xFFFFFFFFFFFFFFFFFFFFFFFFFFFFFFFFFFFFFFFF AND DUP2 MSTORE PUSH1 0x20 ADD SWAP1 DUP2 MSTORE PUSH1 0x20 ADD PUSH1 0x0 KECCAK256 PUSH1 0x0 ADD PUSH1 0x0 DUP3 DUP3 SLOAD PUSH2 0x137 SWAP2 SWAP1 PUSH2 0x664 JUMP JUMPDEST SWAP3 POP POP DUP2 SWAP1 SSTORE POP PUSH1 0x0 PUSH1 0x40 MLOAD DUP1 PUSH1 0x40 ADD PUSH1 0x40 MSTORE DUP1 CALLVALUE DUP2 MSTORE PUSH1 0x20 ADD TIMESTAMP DUP2 MSTORE POP SWAP1 POP DUP1 PUSH1 0x0 DUP1 CALLER PUSH20 0xFFFFFFFFFFFFFFFFFFFFFFFFFFFFFFFFFFFFFFFF AND PUSH20 0xFFFFFFFFFFFFFFFFFFFFFFFFFFFFFFFFFFFFFFFF AND DUP2 MSTORE PUSH1 0x20 ADD SWAP1 DUP2 MSTORE PUSH1 0x20 ADD PUSH1 0x0 KECCAK256 PUSH1 0x2 ADD PUSH1 0x0 DUP1 PUSH1 0x0 CALLER PUSH20 0xFFFFFFFFFFFFFFFFFFFFFFFFFFFFFFFFFFFFFFFF AND PUSH20 0xFFFFFFFFFFFFFFFFFFFFFFFFFFFFFFFFFFFFFFFF AND DUP2 MSTORE PUSH1 0x20 ADD SWAP1 DUP2 MSTORE PUSH1 0x20 ADD PUSH1 0x0 KECCAK256 PUSH1 0x1 ADD SLOAD DUP2 MSTORE PUSH1 0x20 ADD SWAP1 DUP2 MSTORE PUSH1 0x20 ADD PUSH1 0x0 KECCAK256 PUSH1 0x0 DUP3 ADD MLOAD DUP2 PUSH1 0x0 ADD SSTORE PUSH1 0x20 DUP3 ADD MLOAD DUP2 PUSH1 0x1 ADD SSTORE SWAP1 POP POP PUSH1 0x0 DUP1 CALLER PUSH20 0xFFFFFFFFFFFFFFFFFFFFFFFFFFFFFFFFFFFFFFFF AND PUSH20 0xFFFFFFFFFFFFFFFFFFFFFFFFFFFFFFFFFFFFFFFF AND DUP2 MSTORE PUSH1 0x20 ADD SWAP1 DUP2 MSTORE PUSH1 0x20 ADD PUSH1 0x0 KECCAK256 PUSH1 0x1 ADD PUSH1 0x0 DUP2 SLOAD DUP1 SWAP3 SWAP2 SWAP1 PUSH2 0x254 SWAP1 PUSH2 0x6BA JUMP JUMPDEST SWAP2 SWAP1 POP SSTORE POP POP JUMP JUMPDEST PUSH1 0x0 PUSH1 0x20 MSTORE DUP1 PUSH1 0x0 MSTORE PUSH1 0x40 PUSH1 0x0 KECCAK256 PUSH1 0x0 SWAP2 POP SWAP1 POP DUP1 PUSH1 0x0 ADD SLOAD SWAP1 DUP1 PUSH1 0x1 ADD SLOAD SWAP1 DUP1 PUSH1 0x3 ADD SLOAD SWAP1 POP DUP4 JUMP JUMPDEST DUP1 PUSH1 0x0 DUP1 CALLER PUSH20 0xFFFFFFFFFFFFFFFFFFFFFFFFFFFFFFFFFFFFFFFF AND PUSH20 0xFFFFFFFFFFFFFFFFFFFFFFFFFFFFFFFFFFFFFFFF AND DUP2 MSTORE PUSH1 0x20 ADD SWAP1 DUP2 MSTORE PUSH1 0x20 ADD PUSH1 0x0 KECCAK256 PUSH1 0x0 ADD PUSH1 0x0 DUP3 DUP3 SLOAD PUSH2 0x2D7 SWAP2 SWAP1 PUSH2 0x702 JUMP JUMPDEST SWAP3 POP POP DUP2 SWAP1 SSTORE POP PUSH1 0x0 PUSH1 0x40 MLOAD DUP1 PUSH1 0x40 ADD PUSH1 0x40 MSTORE DUP1 CALLVALUE DUP2 MSTORE PUSH1 0x20 ADD TIMESTAMP DUP2 MSTORE POP SWAP1 POP DUP1 PUSH1 0x0 DUP1 CALLER PUSH20 0xFFFFFFFFFFFFFFFFFFFFFFFFFFFFFFFFFFFFFFFF AND PUSH20 0xFFFFFFFFFFFFFFFFFFFFFFFFFFFFFFFFFFFFFFFF AND DUP2 MSTORE PUSH1 0x20 ADD SWAP1 DUP2 MSTORE PUSH1 0x20 ADD PUSH1 0x0 KECCAK256 PUSH1 0x4 ADD PUSH1 0x0 DUP1 PUSH1 0x0 CALLER PUSH20 0xFFFFFFFFFFFFFFFFFFFFFFFFFFFFFFFFFFFFFFFF AND PUSH20 0xFFFFFFFFFFFFFFFFFFFFFFFFFFFFFFFFFFFFFFFF AND DUP2 MSTORE PUSH1 0x20 ADD SWAP1 DUP2 MSTORE PUSH1 0x20 ADD PUSH1 0x0 KECCAK256 PUSH1 0x3 ADD SLOAD DUP2 MSTORE PUSH1 0x20 ADD SWAP1 DUP2 MSTORE PUSH1 0x20 ADD PUSH1 0x0 KECCAK256 PUSH1 0x0 DUP3 ADD MLOAD DUP2 PUSH1 0x0 ADD SSTORE PUSH1 0x20 DUP3 ADD MLOAD DUP2 PUSH1 0x1 ADD SSTORE SWAP1 POP POP PUSH1 0x0 DUP1 CALLER PUSH20 0xFFFFFFFFFFFFFFFFFFFFFFFFFFFFFFFFFFFFFFFF AND PUSH20 0xFFFFFFFFFFFFFFFFFFFFFFFFFFFFFFFFFFFFFFFF AND DUP2 MSTORE PUSH1 0x20 ADD SWAP1 DUP2 MSTORE PUSH1 0x20 ADD PUSH1 0x0 KECCAK256 PUSH1 0x3 ADD PUSH1 0x0 DUP2 SLOAD DUP1 SWAP3 SWAP2 SWAP1 PUSH2 0x3F4 SWAP1 PUSH2 0x6BA JUMP JUMPDEST SWAP2 SWAP1 POP SSTORE POP DUP3 PUSH20 0xFFFFFFFFFFFFFFFFFFFFFFFFFFFFFFFFFFFFFFFF AND PUSH2 0x8FC DUP4 SWAP1 DUP2 ISZERO MUL SWAP1 PUSH1 0x40 MLOAD PUSH1 0x0 PUSH1 0x40 MLOAD DUP1 DUP4 SUB DUP2 DUP6 DUP9 DUP9 CALL SWAP4 POP POP POP POP ISZERO DUP1 ISZERO PUSH2 0x43F JUMPI RETURNDATASIZE PUSH1 0x0 DUP1 RETURNDATACOPY RETURNDATASIZE PUSH1 0x0 REVERT JUMPDEST POP POP POP POP JUMP JUMPDEST PUSH1 0x0 DUP1 PUSH1 0x0 DUP4 PUSH20 0xFFFFFFFFFFFFFFFFFFFFFFFFFFFFFFFFFFFFFFFF AND PUSH20 0xFFFFFFFFFFFFFFFFFFFFFFFFFFFFFFFFFFFFFFFF AND DUP2 MSTORE PUSH1 0x20 ADD SWAP1 DUP2 MSTORE PUSH1 0x20 ADD PUSH1 0x0 KECCAK256 PUSH1 0x0 ADD SLOAD SWAP1 POP SWAP2 SWAP1 POP JUMP JUMPDEST PUSH1 0x0 DUP1 REVERT JUMPDEST PUSH1 0x0 PUSH20 0xFFFFFFFFFFFFFFFFFFFFFFFFFFFFFFFFFFFFFFFF DUP3 AND SWAP1 POP SWAP2 SWAP1 POP JUMP JUMPDEST PUSH1 0x0 PUSH2 0x4C0 DUP3 PUSH2 0x495 JUMP JUMPDEST SWAP1 POP SWAP2 SWAP1 POP JUMP JUMPDEST PUSH2 0x4D0 DUP2 PUSH2 0x4B5 JUMP JUMPDEST DUP2 EQ PUSH2 0x4DB JUMPI PUSH1 0x0 DUP1 REVERT JUMPDEST POP JUMP JUMPDEST PUSH1 0x0 DUP2 CALLDATALOAD SWAP1 POP PUSH2 0x4ED DUP2 PUSH2 0x4C7 JUMP JUMPDEST SWAP3 SWAP2 POP POP JUMP JUMPDEST PUSH1 0x0 PUSH1 0x20 DUP3 DUP5 SUB SLT ISZERO PUSH2 0x509 JUMPI PUSH2 0x508 PUSH2 0x490 JUMP JUMPDEST JUMPDEST PUSH1 0x0 PUSH2 0x517 DUP5 DUP3 DUP6 ADD PUSH2 0x4DE JUMP JUMPDEST SWAP2 POP POP SWAP3 SWAP2 POP POP JUMP JUMPDEST PUSH1 0x0 DUP2 SWAP1 POP SWAP2 SWAP1 POP JUMP JUMPDEST PUSH2 0x533 DUP2 PUSH2 0x520 JUMP JUMPDEST DUP3 MSTORE POP POP JUMP JUMPDEST PUSH1 0x0 PUSH1 0x60 DUP3 ADD SWAP1 POP PUSH2 0x54E PUSH1 0x0 DUP4 ADD DUP7 PUSH2 0x52A JUMP JUMPDEST PUSH2 0x55B PUSH1 0x20 DUP4 ADD DUP6 PUSH2 0x52A JUMP JUMPDEST PUSH2 0x568 PUSH1 0x40 DUP4 ADD DUP5 PUSH2 0x52A JUMP JUMPDEST SWAP5 SWAP4 POP POP POP POP JUMP JUMPDEST PUSH1 0x0 PUSH2 0x57B DUP3 PUSH2 0x495 JUMP JUMPDEST SWAP1 POP SWAP2 SWAP1 POP JUMP JUMPDEST PUSH2 0x58B DUP2 PUSH2 0x570 JUMP JUMPDEST DUP2 EQ PUSH2 0x596 JUMPI PUSH1 0x0 DUP1 REVERT JUMPDEST POP JUMP JUMPDEST PUSH1 0x0 DUP2 CALLDATALOAD SWAP1 POP PUSH2 0x5A8 DUP2 PUSH2 0x582 JUMP JUMPDEST SWAP3 SWAP2 POP POP JUMP JUMPDEST PUSH2 0x5B7 DUP2 PUSH2 0x520 JUMP JUMPDEST DUP2 EQ PUSH2 0x5C2 JUMPI PUSH1 0x0 DUP1 REVERT JUMPDEST POP JUMP JUMPDEST PUSH1 0x0 DUP2 CALLDATALOAD SWAP1 POP PUSH2 0x5D4 DUP2 PUSH2 0x5AE JUMP JUMPDEST SWAP3 SWAP2 POP POP JUMP JUMPDEST PUSH1 0x0 DUP1 PUSH1 0x40 DUP4 DUP6 SUB SLT ISZERO PUSH2 0x5F1 JUMPI PUSH2 0x5F0 PUSH2 0x490 JUMP JUMPDEST JUMPDEST PUSH1 0x0 PUSH2 0x5FF DUP6 DUP3 DUP7 ADD PUSH2 0x599 JUMP JUMPDEST SWAP3 POP POP PUSH1 0x20 PUSH2 0x610 DUP6 DUP3 DUP7 ADD PUSH2 0x5C5 JUMP JUMPDEST SWAP2 POP POP SWAP3 POP SWAP3 SWAP1 POP JUMP JUMPDEST PUSH1 0x0 PUSH1 0x20 DUP3 ADD SWAP1 POP PUSH2 0x62F PUSH1 0x0 DUP4 ADD DUP5 PUSH2 0x52A JUMP JUMPDEST SWAP3 SWAP2 POP POP JUMP JUMPDEST PUSH32 0x4E487B7100000000000000000000000000000000000000000000000000000000 PUSH1 0x0 MSTORE PUSH1 0x11 PUSH1 0x4 MSTORE PUSH1 0x24 PUSH1 0x0 REVERT JUMPDEST PUSH1 0x0 PUSH2 0x66F DUP3 PUSH2 0x520 JUMP JUMPDEST SWAP2 POP PUSH2 0x67A DUP4 PUSH2 0x520 JUMP JUMPDEST SWAP3 POP DUP3 PUSH32 0xFFFFFFFFFFFFFFFFFFFFFFFFFFFFFFFFFFFFFFFFFFFFFFFFFFFFFFFFFFFFFFFF SUB DUP3 GT ISZERO PUSH2 0x6AF JUMPI PUSH2 0x6AE PUSH2 0x635 JUMP JUMPDEST JUMPDEST DUP3 DUP3 ADD SWAP1 POP SWAP3 SWAP2 POP POP JUMP JUMPDEST PUSH1 0x0 PUSH2 0x6C5 DUP3 PUSH2 0x520 JUMP JUMPDEST SWAP2 POP PUSH32 0xFFFFFFFFFFFFFFFFFFFFFFFFFFFFFFFFFFFFFFFFFFFFFFFFFFFFFFFFFFFFFFFF DUP3 SUB PUSH2 0x6F7 JUMPI PUSH2 0x6F6 PUSH2 0x635 JUMP JUMPDEST JUMPDEST PUSH1 0x1 DUP3 ADD SWAP1 POP SWAP2 SWAP1 POP JUMP JUMPDEST PUSH1 0x0 PUSH2 0x70D DUP3 PUSH2 0x520 JUMP JUMPDEST SWAP2 POP PUSH2 0x718 DUP4 PUSH2 0x520 JUMP JUMPDEST SWAP3 POP DUP3 DUP3 LT ISZERO PUSH2 0x72B JUMPI PUSH2 0x72A PUSH2 0x635 JUMP JUMPDEST JUMPDEST DUP3 DUP3 SUB SWAP1 POP SWAP3 SWAP2 POP POP JUMP INVALID LOG2 PUSH5 0x6970667358 0x22 SLT KECCAK256 PUSH9 0x4E27264670E4D8D264 0xBA SWAP9 STOP 0xCD PUSH7 0x40DB8402880F48 PUSH29 0x6A788A807E0317B9E664736F6C634300080E0033000000000000000000 "
				},
				"gasEstimates": {
					"creation": {
						"codeDepositCost": "380000",
						"executionCost": "418",
						"totalCost": "380418"
					},
					"external": {
						"balanceReceived(address)": "infinite",
						"depositMoney()": "infinite",
						"getBalance(address)": "2891",
						"withdrawMoney(address,uint256)": "infinite"
					}
				},
				"methodIdentifiers": {
					"balanceReceived(address)": "d18a42e1",
					"depositMoney()": "16c05aa2",
					"getBalance(address)": "f8b2cb4f",
					"withdrawMoney(address,uint256)": "f274c897"
				}
			},
			"storageLayout": {
				"storage": [
					{
						"astId": 28,
						"contract": "contracts/BlockchainDevCourse/05.Smart_Wallet/MappingsStructTransactionExample.sol:MappingsStructExample",
						"label": "balanceReceived",
						"offset": 0,
						"slot": "0",
						"type": "t_mapping(t_address,t_struct(Balance)23_storage)"
					}
				],
				"types": {
					"t_address": {
						"encoding": "inplace",
						"label": "address",
						"numberOfBytes": "20"
					},
					"t_mapping(t_address,t_struct(Balance)23_storage)": {
						"encoding": "mapping",
						"key": "t_address",
						"label": "mapping(address => struct MappingsStructExample.Balance)",
						"numberOfBytes": "32",
						"value": "t_struct(Balance)23_storage"
					},
					"t_mapping(t_uint256,t_struct(Transaction)6_storage)": {
						"encoding": "mapping",
						"key": "t_uint256",
						"label": "mapping(uint256 => struct MappingsStructExample.Transaction)",
						"numberOfBytes": "32",
						"value": "t_struct(Transaction)6_storage"
					},
					"t_struct(Balance)23_storage": {
						"encoding": "inplace",
						"label": "struct MappingsStructExample.Balance",
						"members": [
							{
								"astId": 8,
								"contract": "contracts/BlockchainDevCourse/05.Smart_Wallet/MappingsStructTransactionExample.sol:MappingsStructExample",
								"label": "totalBalance",
								"offset": 0,
								"slot": "0",
								"type": "t_uint256"
							},
							{
								"astId": 10,
								"contract": "contracts/BlockchainDevCourse/05.Smart_Wallet/MappingsStructTransactionExample.sol:MappingsStructExample",
								"label": "numDeposits",
								"offset": 0,
								"slot": "1",
								"type": "t_uint256"
							},
							{
								"astId": 15,
								"contract": "contracts/BlockchainDevCourse/05.Smart_Wallet/MappingsStructTransactionExample.sol:MappingsStructExample",
								"label": "deposits",
								"offset": 0,
								"slot": "2",
								"type": "t_mapping(t_uint256,t_struct(Transaction)6_storage)"
							},
							{
								"astId": 17,
								"contract": "contracts/BlockchainDevCourse/05.Smart_Wallet/MappingsStructTransactionExample.sol:MappingsStructExample",
								"label": "numWithdrawals",
								"offset": 0,
								"slot": "3",
								"type": "t_uint256"
							},
							{
								"astId": 22,
								"contract": "contracts/BlockchainDevCourse/05.Smart_Wallet/MappingsStructTransactionExample.sol:MappingsStructExample",
								"label": "withdrawals",
								"offset": 0,
								"slot": "4",
								"type": "t_mapping(t_uint256,t_struct(Transaction)6_storage)"
							}
						],
						"numberOfBytes": "160"
					},
					"t_struct(Transaction)6_storage": {
						"encoding": "inplace",
						"label": "struct MappingsStructExample.Transaction",
						"members": [
							{
								"astId": 3,
								"contract": "contracts/BlockchainDevCourse/05.Smart_Wallet/MappingsStructTransactionExample.sol:MappingsStructExample",
								"label": "amount",
								"offset": 0,
								"slot": "0",
								"type": "t_uint256"
							},
							{
								"astId": 5,
								"contract": "contracts/BlockchainDevCourse/05.Smart_Wallet/MappingsStructTransactionExample.sol:MappingsStructExample",
								"label": "timestamp",
								"offset": 0,
								"slot": "1",
								"type": "t_uint256"
							}
						],
						"numberOfBytes": "64"
					},
					"t_uint256": {
						"encoding": "inplace",
						"label": "uint256",
						"numberOfBytes": "32"
					}
				}
			},
			"userdoc": {
				"kind": "user",
				"methods": {},
				"version": 1
			}
		}
	}
}