{
	"contracts/BlockchainDevCourse/05.Smart_Wallet/LowLevelCallsonAddressTypeVariables.sol": {
		"ContractTwo": {
			"abi": [
				{
					"inputs": [],
					"name": "deposit",
					"outputs": [],
					"stateMutability": "payable",
					"type": "function"
				},
				{
					"inputs": [
						{
							"internalType": "address",
							"name": "_contractOne",
							"type": "address"
						}
					],
					"name": "depositOnContractOne",
					"outputs": [],
					"stateMutability": "nonpayable",
					"type": "function"
				}
			],
			"devdoc": {
				"kind": "dev",
				"methods": {},
				"version": 1
			},
			"evm": {
				"assembly": "    /* \"contracts/BlockchainDevCourse/05.Smart_Wallet/LowLevelCallsonAddressTypeVariables.sol\":343:654  contract ContractTwo {... */\n  mstore(0x40, 0x80)\n  callvalue\n  dup1\n  iszero\n  tag_1\n  jumpi\n  0x00\n  dup1\n  revert\ntag_1:\n  pop\n  dataSize(sub_0)\n  dup1\n  dataOffset(sub_0)\n  0x00\n  codecopy\n  0x00\n  return\nstop\n\nsub_0: assembly {\n        /* \"contracts/BlockchainDevCourse/05.Smart_Wallet/LowLevelCallsonAddressTypeVariables.sol\":343:654  contract ContractTwo {... */\n      mstore(0x40, 0x80)\n      jumpi(tag_1, lt(calldatasize, 0x04))\n      shr(0xe0, calldataload(0x00))\n      dup1\n      0xac1dddca\n      eq\n      tag_2\n      jumpi\n      dup1\n      0xd0e30db0\n      eq\n      tag_3\n      jumpi\n    tag_1:\n      0x00\n      dup1\n      revert\n        /* \"contracts/BlockchainDevCourse/05.Smart_Wallet/LowLevelCallsonAddressTypeVariables.sol\":412:652  function depositOnContractOne(address _contractOne) public {... */\n    tag_2:\n      callvalue\n      dup1\n      iszero\n      tag_4\n      jumpi\n      0x00\n      dup1\n      revert\n    tag_4:\n      pop\n      tag_5\n      0x04\n      dup1\n      calldatasize\n      sub\n      dup2\n      add\n      swap1\n      tag_6\n      swap2\n      swap1\n      tag_7\n      jump\t// in\n    tag_6:\n      tag_8\n      jump\t// in\n    tag_5:\n      stop\n        /* \"contracts/BlockchainDevCourse/05.Smart_Wallet/LowLevelCallsonAddressTypeVariables.sol\":370:406  function deposit() public payable {} */\n    tag_3:\n      tag_9\n      tag_10\n      jump\t// in\n    tag_9:\n      stop\n        /* \"contracts/BlockchainDevCourse/05.Smart_Wallet/LowLevelCallsonAddressTypeVariables.sol\":412:652  function depositOnContractOne(address _contractOne) public {... */\n    tag_8:\n        /* \"contracts/BlockchainDevCourse/05.Smart_Wallet/LowLevelCallsonAddressTypeVariables.sol\":481:501  bytes memory payload */\n      0x00\n        /* \"contracts/BlockchainDevCourse/05.Smart_Wallet/LowLevelCallsonAddressTypeVariables.sol\":504:540  abi.encodeWithSignature(\"deposit()\") */\n      add(0x24, mload(0x40))\n      mload(0x40)\n      0x20\n      dup2\n      dup4\n      sub\n      sub\n      dup2\n      mstore\n      swap1\n      0x40\n      mstore\n      and(not(0xffffffffffffffffffffffffffffffffffffffffffffffffffffffff), 0xd0e30db000000000000000000000000000000000000000000000000000000000)\n      0x20\n      dup3\n      add\n      dup1\n      mload\n      0xffffffffffffffffffffffffffffffffffffffffffffffffffffffff\n      dup4\n      dup2\n      dup4\n      and\n      or\n      dup4\n      mstore\n      pop\n      pop\n      pop\n      pop\n        /* \"contracts/BlockchainDevCourse/05.Smart_Wallet/LowLevelCallsonAddressTypeVariables.sol\":481:540  bytes memory payload = abi.encodeWithSignature(\"deposit()\") */\n      swap1\n      pop\n        /* \"contracts/BlockchainDevCourse/05.Smart_Wallet/LowLevelCallsonAddressTypeVariables.sol\":551:563  bool success */\n      0x00\n        /* \"contracts/BlockchainDevCourse/05.Smart_Wallet/LowLevelCallsonAddressTypeVariables.sol\":569:581  _contractOne */\n      dup3\n        /* \"contracts/BlockchainDevCourse/05.Smart_Wallet/LowLevelCallsonAddressTypeVariables.sol\":569:586  _contractOne.call */\n      0xffffffffffffffffffffffffffffffffffffffff\n      and\n        /* \"contracts/BlockchainDevCourse/05.Smart_Wallet/LowLevelCallsonAddressTypeVariables.sol\":594:596  10 */\n      0x0a\n        /* \"contracts/BlockchainDevCourse/05.Smart_Wallet/LowLevelCallsonAddressTypeVariables.sol\":603:609  100000 */\n      0x0186a0\n        /* \"contracts/BlockchainDevCourse/05.Smart_Wallet/LowLevelCallsonAddressTypeVariables.sol\":569:619  _contractOne.call{value: 10, gas: 100000}(payload) */\n      swap1\n        /* \"contracts/BlockchainDevCourse/05.Smart_Wallet/LowLevelCallsonAddressTypeVariables.sol\":611:618  payload */\n      dup5\n        /* \"contracts/BlockchainDevCourse/05.Smart_Wallet/LowLevelCallsonAddressTypeVariables.sol\":569:619  _contractOne.call{value: 10, gas: 100000}(payload) */\n      mload(0x40)\n      tag_12\n      swap2\n      swap1\n      tag_13\n      jump\t// in\n    tag_12:\n      0x00\n      mload(0x40)\n      dup1\n      dup4\n      sub\n      dup2\n      dup6\n      dup9\n      dup9\n      call\n      swap4\n      pop\n      pop\n      pop\n      pop\n      returndatasize\n      dup1\n      0x00\n      dup2\n      eq\n      tag_16\n      jumpi\n      mload(0x40)\n      swap2\n      pop\n      and(add(returndatasize, 0x3f), not(0x1f))\n      dup3\n      add\n      0x40\n      mstore\n      returndatasize\n      dup3\n      mstore\n      returndatasize\n      0x00\n      0x20\n      dup5\n      add\n      returndatacopy\n      jump(tag_15)\n    tag_16:\n      0x60\n      swap2\n      pop\n    tag_15:\n      pop\n        /* \"contracts/BlockchainDevCourse/05.Smart_Wallet/LowLevelCallsonAddressTypeVariables.sol\":550:619  (bool success, ) = _contractOne.call{value: 10, gas: 100000}(payload) */\n      pop\n      swap1\n      pop\n        /* \"contracts/BlockchainDevCourse/05.Smart_Wallet/LowLevelCallsonAddressTypeVariables.sol\":637:644  success */\n      dup1\n        /* \"contracts/BlockchainDevCourse/05.Smart_Wallet/LowLevelCallsonAddressTypeVariables.sol\":629:645  require(success) */\n      tag_17\n      jumpi\n      0x00\n      dup1\n      revert\n    tag_17:\n        /* \"contracts/BlockchainDevCourse/05.Smart_Wallet/LowLevelCallsonAddressTypeVariables.sol\":471:652  {... */\n      pop\n      pop\n        /* \"contracts/BlockchainDevCourse/05.Smart_Wallet/LowLevelCallsonAddressTypeVariables.sol\":412:652  function depositOnContractOne(address _contractOne) public {... */\n      pop\n      jump\t// out\n        /* \"contracts/BlockchainDevCourse/05.Smart_Wallet/LowLevelCallsonAddressTypeVariables.sol\":370:406  function deposit() public payable {} */\n    tag_10:\n      jump\t// out\n        /* \"#utility.yul\":88:205   */\n    tag_20:\n        /* \"#utility.yul\":197:198   */\n      0x00\n        /* \"#utility.yul\":194:195   */\n      dup1\n        /* \"#utility.yul\":187:199   */\n      revert\n        /* \"#utility.yul\":334:460   */\n    tag_22:\n        /* \"#utility.yul\":371:378   */\n      0x00\n        /* \"#utility.yul\":411:453   */\n      0xffffffffffffffffffffffffffffffffffffffff\n        /* \"#utility.yul\":404:409   */\n      dup3\n        /* \"#utility.yul\":400:454   */\n      and\n        /* \"#utility.yul\":389:454   */\n      swap1\n      pop\n        /* \"#utility.yul\":334:460   */\n      swap2\n      swap1\n      pop\n      jump\t// out\n        /* \"#utility.yul\":466:562   */\n    tag_23:\n        /* \"#utility.yul\":503:510   */\n      0x00\n        /* \"#utility.yul\":532:556   */\n      tag_36\n        /* \"#utility.yul\":550:555   */\n      dup3\n        /* \"#utility.yul\":532:556   */\n      tag_22\n      jump\t// in\n    tag_36:\n        /* \"#utility.yul\":521:556   */\n      swap1\n      pop\n        /* \"#utility.yul\":466:562   */\n      swap2\n      swap1\n      pop\n      jump\t// out\n        /* \"#utility.yul\":568:690   */\n    tag_24:\n        /* \"#utility.yul\":641:665   */\n      tag_38\n        /* \"#utility.yul\":659:664   */\n      dup2\n        /* \"#utility.yul\":641:665   */\n      tag_23\n      jump\t// in\n    tag_38:\n        /* \"#utility.yul\":634:639   */\n      dup2\n        /* \"#utility.yul\":631:666   */\n      eq\n        /* \"#utility.yul\":621:684   */\n      tag_39\n      jumpi\n        /* \"#utility.yul\":680:681   */\n      0x00\n        /* \"#utility.yul\":677:678   */\n      dup1\n        /* \"#utility.yul\":670:682   */\n      revert\n        /* \"#utility.yul\":621:684   */\n    tag_39:\n        /* \"#utility.yul\":568:690   */\n      pop\n      jump\t// out\n        /* \"#utility.yul\":696:835   */\n    tag_25:\n        /* \"#utility.yul\":742:747   */\n      0x00\n        /* \"#utility.yul\":780:786   */\n      dup2\n        /* \"#utility.yul\":767:787   */\n      calldataload\n        /* \"#utility.yul\":758:787   */\n      swap1\n      pop\n        /* \"#utility.yul\":796:829   */\n      tag_41\n        /* \"#utility.yul\":823:828   */\n      dup2\n        /* \"#utility.yul\":796:829   */\n      tag_24\n      jump\t// in\n    tag_41:\n        /* \"#utility.yul\":696:835   */\n      swap3\n      swap2\n      pop\n      pop\n      jump\t// out\n        /* \"#utility.yul\":841:1170   */\n    tag_7:\n        /* \"#utility.yul\":900:906   */\n      0x00\n        /* \"#utility.yul\":949:951   */\n      0x20\n        /* \"#utility.yul\":937:946   */\n      dup3\n        /* \"#utility.yul\":928:935   */\n      dup5\n        /* \"#utility.yul\":924:947   */\n      sub\n        /* \"#utility.yul\":920:952   */\n      slt\n        /* \"#utility.yul\":917:1036   */\n      iszero\n      tag_43\n      jumpi\n        /* \"#utility.yul\":955:1034   */\n      tag_44\n      tag_20\n      jump\t// in\n    tag_44:\n        /* \"#utility.yul\":917:1036   */\n    tag_43:\n        /* \"#utility.yul\":1075:1076   */\n      0x00\n        /* \"#utility.yul\":1100:1153   */\n      tag_45\n        /* \"#utility.yul\":1145:1152   */\n      dup5\n        /* \"#utility.yul\":1136:1142   */\n      dup3\n        /* \"#utility.yul\":1125:1134   */\n      dup6\n        /* \"#utility.yul\":1121:1143   */\n      add\n        /* \"#utility.yul\":1100:1153   */\n      tag_25\n      jump\t// in\n    tag_45:\n        /* \"#utility.yul\":1090:1153   */\n      swap2\n      pop\n        /* \"#utility.yul\":1046:1163   */\n      pop\n        /* \"#utility.yul\":841:1170   */\n      swap3\n      swap2\n      pop\n      pop\n      jump\t// out\n        /* \"#utility.yul\":1176:1274   */\n    tag_26:\n        /* \"#utility.yul\":1227:1233   */\n      0x00\n        /* \"#utility.yul\":1261:1266   */\n      dup2\n        /* \"#utility.yul\":1255:1267   */\n      mload\n        /* \"#utility.yul\":1245:1267   */\n      swap1\n      pop\n        /* \"#utility.yul\":1176:1274   */\n      swap2\n      swap1\n      pop\n      jump\t// out\n        /* \"#utility.yul\":1280:1427   */\n    tag_27:\n        /* \"#utility.yul\":1381:1392   */\n      0x00\n        /* \"#utility.yul\":1418:1421   */\n      dup2\n        /* \"#utility.yul\":1403:1421   */\n      swap1\n      pop\n        /* \"#utility.yul\":1280:1427   */\n      swap3\n      swap2\n      pop\n      pop\n      jump\t// out\n        /* \"#utility.yul\":1433:1740   */\n    tag_28:\n        /* \"#utility.yul\":1501:1502   */\n      0x00\n        /* \"#utility.yul\":1511:1624   */\n    tag_49:\n        /* \"#utility.yul\":1525:1531   */\n      dup4\n        /* \"#utility.yul\":1522:1523   */\n      dup2\n        /* \"#utility.yul\":1519:1532   */\n      lt\n        /* \"#utility.yul\":1511:1624   */\n      iszero\n      tag_51\n      jumpi\n        /* \"#utility.yul\":1610:1611   */\n      dup1\n        /* \"#utility.yul\":1605:1608   */\n      dup3\n        /* \"#utility.yul\":1601:1612   */\n      add\n        /* \"#utility.yul\":1595:1613   */\n      mload\n        /* \"#utility.yul\":1591:1592   */\n      dup2\n        /* \"#utility.yul\":1586:1589   */\n      dup5\n        /* \"#utility.yul\":1582:1593   */\n      add\n        /* \"#utility.yul\":1575:1614   */\n      mstore\n        /* \"#utility.yul\":1547:1549   */\n      0x20\n        /* \"#utility.yul\":1544:1545   */\n      dup2\n        /* \"#utility.yul\":1540:1550   */\n      add\n        /* \"#utility.yul\":1535:1550   */\n      swap1\n      pop\n        /* \"#utility.yul\":1511:1624   */\n      jump(tag_49)\n    tag_51:\n        /* \"#utility.yul\":1642:1648   */\n      dup4\n        /* \"#utility.yul\":1639:1640   */\n      dup2\n        /* \"#utility.yul\":1636:1649   */\n      gt\n        /* \"#utility.yul\":1633:1734   */\n      iszero\n      tag_52\n      jumpi\n        /* \"#utility.yul\":1722:1723   */\n      0x00\n        /* \"#utility.yul\":1713:1719   */\n      dup5\n        /* \"#utility.yul\":1708:1711   */\n      dup5\n        /* \"#utility.yul\":1704:1720   */\n      add\n        /* \"#utility.yul\":1697:1724   */\n      mstore\n        /* \"#utility.yul\":1633:1734   */\n    tag_52:\n        /* \"#utility.yul\":1482:1740   */\n      pop\n        /* \"#utility.yul\":1433:1740   */\n      pop\n      pop\n      pop\n      jump\t// out\n        /* \"#utility.yul\":1746:2119   */\n    tag_29:\n        /* \"#utility.yul\":1850:1853   */\n      0x00\n        /* \"#utility.yul\":1878:1916   */\n      tag_54\n        /* \"#utility.yul\":1910:1915   */\n      dup3\n        /* \"#utility.yul\":1878:1916   */\n      tag_26\n      jump\t// in\n    tag_54:\n        /* \"#utility.yul\":1932:2020   */\n      tag_55\n        /* \"#utility.yul\":2013:2019   */\n      dup2\n        /* \"#utility.yul\":2008:2011   */\n      dup6\n        /* \"#utility.yul\":1932:2020   */\n      tag_27\n      jump\t// in\n    tag_55:\n        /* \"#utility.yul\":1925:2020   */\n      swap4\n      pop\n        /* \"#utility.yul\":2029:2081   */\n      tag_56\n        /* \"#utility.yul\":2074:2080   */\n      dup2\n        /* \"#utility.yul\":2069:2072   */\n      dup6\n        /* \"#utility.yul\":2062:2066   */\n      0x20\n        /* \"#utility.yul\":2055:2060   */\n      dup7\n        /* \"#utility.yul\":2051:2067   */\n      add\n        /* \"#utility.yul\":2029:2081   */\n      tag_28\n      jump\t// in\n    tag_56:\n        /* \"#utility.yul\":2106:2112   */\n      dup1\n        /* \"#utility.yul\":2101:2104   */\n      dup5\n        /* \"#utility.yul\":2097:2113   */\n      add\n        /* \"#utility.yul\":2090:2113   */\n      swap2\n      pop\n        /* \"#utility.yul\":1854:2119   */\n      pop\n        /* \"#utility.yul\":1746:2119   */\n      swap3\n      swap2\n      pop\n      pop\n      jump\t// out\n        /* \"#utility.yul\":2125:2396   */\n    tag_13:\n        /* \"#utility.yul\":2255:2258   */\n      0x00\n        /* \"#utility.yul\":2277:2370   */\n      tag_58\n        /* \"#utility.yul\":2366:2369   */\n      dup3\n        /* \"#utility.yul\":2357:2363   */\n      dup5\n        /* \"#utility.yul\":2277:2370   */\n      tag_29\n      jump\t// in\n    tag_58:\n        /* \"#utility.yul\":2270:2370   */\n      swap2\n      pop\n        /* \"#utility.yul\":2387:2390   */\n      dup2\n        /* \"#utility.yul\":2380:2390   */\n      swap1\n      pop\n        /* \"#utility.yul\":2125:2396   */\n      swap3\n      swap2\n      pop\n      pop\n      jump\t// out\n\n    auxdata: 0xa264697066735822122093622fb797378fe61d38041409f4643e98914655ee987b399835f28c45320c4c64736f6c634300080f0033\n}\n",
				"bytecode": {
					"linkReferences": {},
					"object": "608060405234801561001057600080fd5b506102c5806100206000396000f3fe6080604052600436106100295760003560e01c8063ac1dddca1461002e578063d0e30db014610057575b600080fd5b34801561003a57600080fd5b50610055600480360381019061005091906101d1565b610061565b005b61005f61016c565b005b60006040516024016040516020818303038152906040527fd0e30db0000000000000000000000000000000000000000000000000000000007bffffffffffffffffffffffffffffffffffffffffffffffffffffffff19166020820180517bffffffffffffffffffffffffffffffffffffffffffffffffffffffff8381831617835250505050905060008273ffffffffffffffffffffffffffffffffffffffff16600a620186a090846040516101169190610278565b600060405180830381858888f193505050503d8060008114610154576040519150601f19603f3d011682016040523d82523d6000602084013e610159565b606091505b505090508061016757600080fd5b505050565b565b600080fd5b600073ffffffffffffffffffffffffffffffffffffffff82169050919050565b600061019e82610173565b9050919050565b6101ae81610193565b81146101b957600080fd5b50565b6000813590506101cb816101a5565b92915050565b6000602082840312156101e7576101e661016e565b5b60006101f5848285016101bc565b91505092915050565b600081519050919050565b600081905092915050565b60005b83811015610232578082015181840152602081019050610217565b83811115610241576000848401525b50505050565b6000610252826101fe565b61025c8185610209565b935061026c818560208601610214565b80840191505092915050565b60006102848284610247565b91508190509291505056fea264697066735822122093622fb797378fe61d38041409f4643e98914655ee987b399835f28c45320c4c64736f6c634300080f0033",
					"opcodes": "PUSH1 0x80 PUSH1 0x40 MSTORE CALLVALUE DUP1 ISZERO PUSH2 0x10 JUMPI PUSH1 0x0 DUP1 REVERT JUMPDEST POP PUSH2 0x2C5 DUP1 PUSH2 0x20 PUSH1 0x0 CODECOPY PUSH1 0x0 RETURN INVALID PUSH1 0x80 PUSH1 0x40 MSTORE PUSH1 0x4 CALLDATASIZE LT PUSH2 0x29 JUMPI PUSH1 0x0 CALLDATALOAD PUSH1 0xE0 SHR DUP1 PUSH4 0xAC1DDDCA EQ PUSH2 0x2E JUMPI DUP1 PUSH4 0xD0E30DB0 EQ PUSH2 0x57 JUMPI JUMPDEST PUSH1 0x0 DUP1 REVERT JUMPDEST CALLVALUE DUP1 ISZERO PUSH2 0x3A JUMPI PUSH1 0x0 DUP1 REVERT JUMPDEST POP PUSH2 0x55 PUSH1 0x4 DUP1 CALLDATASIZE SUB DUP2 ADD SWAP1 PUSH2 0x50 SWAP2 SWAP1 PUSH2 0x1D1 JUMP JUMPDEST PUSH2 0x61 JUMP JUMPDEST STOP JUMPDEST PUSH2 0x5F PUSH2 0x16C JUMP JUMPDEST STOP JUMPDEST PUSH1 0x0 PUSH1 0x40 MLOAD PUSH1 0x24 ADD PUSH1 0x40 MLOAD PUSH1 0x20 DUP2 DUP4 SUB SUB DUP2 MSTORE SWAP1 PUSH1 0x40 MSTORE PUSH32 0xD0E30DB000000000000000000000000000000000000000000000000000000000 PUSH28 0xFFFFFFFFFFFFFFFFFFFFFFFFFFFFFFFFFFFFFFFFFFFFFFFFFFFFFFFF NOT AND PUSH1 0x20 DUP3 ADD DUP1 MLOAD PUSH28 0xFFFFFFFFFFFFFFFFFFFFFFFFFFFFFFFFFFFFFFFFFFFFFFFFFFFFFFFF DUP4 DUP2 DUP4 AND OR DUP4 MSTORE POP POP POP POP SWAP1 POP PUSH1 0x0 DUP3 PUSH20 0xFFFFFFFFFFFFFFFFFFFFFFFFFFFFFFFFFFFFFFFF AND PUSH1 0xA PUSH3 0x186A0 SWAP1 DUP5 PUSH1 0x40 MLOAD PUSH2 0x116 SWAP2 SWAP1 PUSH2 0x278 JUMP JUMPDEST PUSH1 0x0 PUSH1 0x40 MLOAD DUP1 DUP4 SUB DUP2 DUP6 DUP9 DUP9 CALL SWAP4 POP POP POP POP RETURNDATASIZE DUP1 PUSH1 0x0 DUP2 EQ PUSH2 0x154 JUMPI PUSH1 0x40 MLOAD SWAP2 POP PUSH1 0x1F NOT PUSH1 0x3F RETURNDATASIZE ADD AND DUP3 ADD PUSH1 0x40 MSTORE RETURNDATASIZE DUP3 MSTORE RETURNDATASIZE PUSH1 0x0 PUSH1 0x20 DUP5 ADD RETURNDATACOPY PUSH2 0x159 JUMP JUMPDEST PUSH1 0x60 SWAP2 POP JUMPDEST POP POP SWAP1 POP DUP1 PUSH2 0x167 JUMPI PUSH1 0x0 DUP1 REVERT JUMPDEST POP POP POP JUMP JUMPDEST JUMP JUMPDEST PUSH1 0x0 DUP1 REVERT JUMPDEST PUSH1 0x0 PUSH20 0xFFFFFFFFFFFFFFFFFFFFFFFFFFFFFFFFFFFFFFFF DUP3 AND SWAP1 POP SWAP2 SWAP1 POP JUMP JUMPDEST PUSH1 0x0 PUSH2 0x19E DUP3 PUSH2 0x173 JUMP JUMPDEST SWAP1 POP SWAP2 SWAP1 POP JUMP JUMPDEST PUSH2 0x1AE DUP2 PUSH2 0x193 JUMP JUMPDEST DUP2 EQ PUSH2 0x1B9 JUMPI PUSH1 0x0 DUP1 REVERT JUMPDEST POP JUMP JUMPDEST PUSH1 0x0 DUP2 CALLDATALOAD SWAP1 POP PUSH2 0x1CB DUP2 PUSH2 0x1A5 JUMP JUMPDEST SWAP3 SWAP2 POP POP JUMP JUMPDEST PUSH1 0x0 PUSH1 0x20 DUP3 DUP5 SUB SLT ISZERO PUSH2 0x1E7 JUMPI PUSH2 0x1E6 PUSH2 0x16E JUMP JUMPDEST JUMPDEST PUSH1 0x0 PUSH2 0x1F5 DUP5 DUP3 DUP6 ADD PUSH2 0x1BC JUMP JUMPDEST SWAP2 POP POP SWAP3 SWAP2 POP POP JUMP JUMPDEST PUSH1 0x0 DUP2 MLOAD SWAP1 POP SWAP2 SWAP1 POP JUMP JUMPDEST PUSH1 0x0 DUP2 SWAP1 POP SWAP3 SWAP2 POP POP JUMP JUMPDEST PUSH1 0x0 JUMPDEST DUP4 DUP2 LT ISZERO PUSH2 0x232 JUMPI DUP1 DUP3 ADD MLOAD DUP2 DUP5 ADD MSTORE PUSH1 0x20 DUP2 ADD SWAP1 POP PUSH2 0x217 JUMP JUMPDEST DUP4 DUP2 GT ISZERO PUSH2 0x241 JUMPI PUSH1 0x0 DUP5 DUP5 ADD MSTORE JUMPDEST POP POP POP POP JUMP JUMPDEST PUSH1 0x0 PUSH2 0x252 DUP3 PUSH2 0x1FE JUMP JUMPDEST PUSH2 0x25C DUP2 DUP6 PUSH2 0x209 JUMP JUMPDEST SWAP4 POP PUSH2 0x26C DUP2 DUP6 PUSH1 0x20 DUP7 ADD PUSH2 0x214 JUMP JUMPDEST DUP1 DUP5 ADD SWAP2 POP POP SWAP3 SWAP2 POP POP JUMP JUMPDEST PUSH1 0x0 PUSH2 0x284 DUP3 DUP5 PUSH2 0x247 JUMP JUMPDEST SWAP2 POP DUP2 SWAP1 POP SWAP3 SWAP2 POP POP JUMP INVALID LOG2 PUSH5 0x6970667358 0x22 SLT KECCAK256 SWAP4 PUSH3 0x2FB797 CALLDATACOPY DUP16 0xE6 SAR CODESIZE DIV EQ MULMOD DELEGATECALL PUSH5 0x3E98914655 0xEE SWAP9 PUSH28 0x399835F28C45320C4C64736F6C634300080F00330000000000000000 "
				},
				"gasEstimates": {
					"creation": {
						"codeDepositCost": "141800",
						"executionCost": "190",
						"totalCost": "141990"
					},
					"external": {
						"deposit()": "120",
						"depositOnContractOne(address)": "infinite"
					}
				},
				"methodIdentifiers": {
					"deposit()": "d0e30db0",
					"depositOnContractOne(address)": "ac1dddca"
				}
			},
			"storageLayout": {
				"storage": [],
				"types": null
			},
			"userdoc": {
				"kind": "user",
				"methods": {},
				"version": 1
			}
		}
	}
}